S018000074696D65722D6D757369632D746573742E73726563B0
S11300000C9456000C9473000C9473000C947300BD
S11300100C9473000C9473000C9473000C94730090
S11300200C9473000C9473000C9473000C94730080
S11300300C9499010C9473000C9473000C94730049
S11300400C9473000C9473000C9473000C94730060
S11300500C9473000C9473000C9473000C94730050
S11300600C9473000C9473000C9473000C94730040
S11300700C9473000C9473000C9473000C94730030
S11300800C9473000C9473000C9473000C94730020
S11300900C9473000C9473000C9473000C94730010
S11300A00C9473000C9473000C94730011241FBE01
S11300B0CFEFCDBFD7E2DEBF11E2A0E0B0E2EAE9C4
S11300C0F4E002C005900D92A439B107D9F721E2FA
S11300D0A4E9B1E201C01D92A43CB207E1F70E9479
S11300E052010C944B020C94000088ED84BF82E012
S11300F0809350008091510081FFFCCF88ED84BF34
S113010081E080934000089587E08093A2000895E1
S1130110E0E0F8E01182148283E0868310828BEDA4
S113012095E386A397A3089580E180934106E0E4D4
S1130130F8E081E0818385E0848384E0808308950E
S113014080E180936106E0E4F9E081E0818385E069
S1130150848384E080830895CF92DF92EF92FF92AC
S11301600F931F93CF93DF936C01E901D70181E0D3
S1130170F601808388819981680F791FFB01908142
S1130180892F829586958695837061E070E002C020
S1130190660F771F8A95E2F76150F801208131815B
S11301A0420F531FFA01208130E00C9002C03595B4
S11301B027950A94E2F720FD6FE0F60160839F73B0
S11301C0892F90E0009751F0880F991FFC01ED5E94
S11301D0FE4D408151815695479502C040E050E064
S11301E0288139812F5F3F4F288339839C919F5FFA
S11301F09C93983039F41C92F80180819181019686
S113020080839183CA01DF91CF911F910F91FF9059
S1130210EF90DF90CF900895EF92FF920F931F938A
S113022040911A2050911B2060911C2070911D2038
S11302300F2EF0EAEF2EF1E2FF2EF02D01EA11E28B
S113024023EA31E28FE991E20E94AC0080936808CE
S1130250909369081F910F91FF90EF900895EF928A
S1130260FF920F931F9340910220509103206091BD
S11302700420709105200F2EF5E9EF2EF1E2FF2EF8
S1130280F02D06E911E228E931E284E991E20E94C5
S1130290AC0080936809909369091F910F91FF90B6
S11302A0EF900895F8940E9475000E9484000E94C3
S11302B088000E9494000E94A000789488E08093B3
S11302C0010684EF90E280931C2090931D2080EC23
S11302D091E280931A2090931B2010929F211092F8
S11302E0A3211092A4211092A1211092A221109274
S11302F0A0218DE991E2809304209093052089E167
S113030090E2809302209093032010929421109203
S1130310982110929921109296211092972110926F
S113032095210E940C010E942F0186E08093000811
S1130330FFCF1F920F920FB60F9211242F933F936A
S11303404F935F936F937F938F939F93AF93BF93D9
S1130350EF93FF9388E08093070681E080930C0875
S113036080919F21811137C0E0E4F8E0108210A64B
S113037011A62091A3213091A42180911E20909157
S11303801F202817390720F1809101208823A1F02C
S11303901092012084ED90E080931E2090931F2002
S11303A080E290E280931C2090931D2085EA91E2E4
S11303B080931A2090931B2010929F211092A321C6
S11303C01092A4211092A1211092A2211092A02196
S11303D00E940C0103C0815080939F21809194213D
S11303E0811137C0E0E4F9E0108210A611A6209133
S11303F09821309199218091062090910720281707
S1130400390720F1809100208823A1F01092002068
S113041081E190E0809306209093072088E090E2A9
S113042080930420909305208AE991E2809302202E
S11304309093032010929421109298211092992164
S11304401092962110929721109295210E942F01CB
S113045003C08150809394212FEF83EF91E02150CA
S113046080409040E1F700C0000084E080934008A1
S113047080934009FF91EF91BF91AF919F918F912C
S11304807F916F915F914F913F912F910F900FBE8C
S10D04900F901F901895F894FFCF09
S113049A010119209D21020075697367766A7165E5
S11304AA786C73673A2E7A787603C021F4201F0099
S11304BA4F4D15521413145656545313141614123A
S11304CA0F0D120F1412161416524F0D120F141286
S11304DA16151213141614531614120F1413141691
S11304EA5456544F4D155214131456565453131448
S11304FA1614120F0D120F1412161416524F0D124F
S113050A0F141216151213141614531614120F1468
S113051A131416545656561B19561B19161412162A
S113052A1112110F56561B19161B111214161D1EE1
S113053A1D1B561B19561B1916161412161B191BAA
S113054A561617161B19161112110F5657561B1940
S113055A561B19161412161112110F56561B191678
S113056A1B111214161D1E1D1B561B19561B191678
S113057A161412161B191B561617161B19161112C6
S113058A110F565412110F000A1112110F0A0605FF
S113059A060B0A000F0012110F004A080B0A08057D
S11305AA060508B404FC0448059805EC054806A8A1
S11305BA060C077807E8076008E0086809F8099054
S11305CA0A300BD80B900C4C0D180EF00ED00FC439
S11305DA10C011D012F0131C156016B4171C199C04
S11305EA1A301CDC1DA41F84218423A025DC273C8B
S11305FA2AC02C682F383234356038B83B483F0853
S113060A430447404BB84F74547C59CC5E706468B9
S113061A6ABC707077887E14860C8E8096709FEC04
S107062AA8FCB20072
S9030000FC
