S0260000786D656761313665352D696F2D657870616E6465722D6932632D746573742E737265634A
S11300000C94AA000C94C7000C94C7000C94C7006D
S11300100C94C7000C94C7000C94C7000C94C70040
S11300200C94C7000C94C7000C94C7000C942C01CA
S11300300C94C7000C94C7000C94C7000C94C70020
S11300400C94C7000C94C7000C94C7000C94C70010
S11300500C94C7000C94C7000C94C7000C94C70000
S11300600C94C7000C94C7000C94C7000C94C700F0
S11300700C94C7000C94C7000C94C7000C94C700E0
S11300800C94C7000C94C7000C94C7000C94C700D0
S11300900C94C7000C94C7000C94C7000C94C700C0
S11300A00C94C7000C94C7000C94C7006D0573052D
S11300B0730573057305730573057305730573057C
S11300C0730573057305730573057305730573056C
S11300D0730573057305730573057305730573055C
S11300E07305730573054305B404D70473055505F7
S11300F0730573057305730573057305730573053C
S113010073057305730573056205730504057305AB
S1130110730522057305730573057305730573056C
S11301207305730573053105B404BE0473055505E1
S113013073057305730573057305730573057305FB
S1130140730573057305730562057305F50473057B
S11301507305130511241FBECFEFCDBFD7E2DEBF59
S113016012E2A0E0B0E2EEE8FEE002C005900D92DB
S1130170A431B107D9F722E2A4E1B2E201C01D9291
S1130180A232B207E1F70E9464020C9445070C9472
S1130190000084E98093850410928004E1E8F4E08F
S11301A08081886F80831092820410928304E4E833
S11301B0F4E080818D6C80830895409315225093E0
S11301C01622109218221092192210921A22609369
S11301D01C2270931D2290E0880F991F81608093E8
S11301E0860480911A228130E1F780E0089591E03D
S11301F090931722209315223093162210921822DE
S1130200109219221092142210921A2260931E2224
S113021040931B22880F8093860480911A22813098
S1130220E1F780E00895109217224093152250932D
S11302301622109218221092192210921A226093F8
S11302401C2270931D22880F8093860480911A22A9
S11302508130E1F780E008951F920F920FB60F925C
S113026011242F933F934F935F938F939F93EF9317
S1130270FF938091840483FF03C083E0809383040D
S11302808091840482FD04C08091840484FF08C0AA
S1130290E3E8F4E083E0808381E0808380931A22A2
S11302A080911A22882331F0E4E8F4E080818064AC
S11302B0808379C08091840486FF47C08091840440
S11302C084FD43C0809117228823C9F080911422B1
S11302D0882369F080911B228093870480911822DF
S11302E0909119220196809318229093192280915B
S11302F01E228093870481E08093142215C02091EC
S11303001C2230911D228091182290911922AC0157
S11303104F5F5F4F4093182250931922F901E80F61
S1130320F91F80818093870420911822309119222B
S113033080911522909116222817390731F483E011
S11303408093830481E080931A228091840488231B
S113035054F520911C2230911D22809118229091F5
S11303601922AC014F5F5F4F40931822509319221A
S1130370F901E80FF91F20918704208320911822A6
S1130380309119228091152290911622281739074D
S113039039F487E08093830481E080931A2203C0B8
S11303A082E080938304FF91EF919F918F915F91FD
S11303B04F913F912F910F900FBE0F901F90189562
S11303C088ED84BF82E0809350008091510081FFCA
S11303D0FCCF88ED84BF91E09093400084BF1092DD
S11303E04100089587E08093A20008950E94C0020E
S11303F00E94DF0260E080E00E94060382E290E255
S11304009F938F930E9471040F900F900895CF9340
S1130410DF9300D01F92CDB7DEB786E089838FEFDC
S11304208A838B8343E050E0BE016F5F7F4F80E29D
S11304300E9413012396CDBFDEBFDF91CF910895B3
S1130440CF93DF931F92CDB7DEB7898341E050E0AD
S1130450BE016F5F7F4F80E20E94130141E050E0D4
S11304606FE172E280E20E94DD0080911F220F9012
S1130470DF91CF910895CF9380E00E942002C82F8E
S113048081E00E94200290E0982F88278C0F911D14
S1130490CF910895AC0190E014C0FB01E90FF11D68
S11304A020E3208320E030E8092E02C0369527950A
S11304B00A94E2F724233523232B11F081E380836C
S11304C09F5F903150F30895CF93DF93CDB7DEB79C
S11304D06197CDBFDEBFF8940E94E0010E94F20153
S11304E00E94C900789400E016E06894FF24F3F8B1
S11304F0D8011196FC92119784E012968C9312976E
S113050088E152968C930E94F6010E94070260E0F3
S113051081E00E9406038AE290E29F938F930E94F7
S11305207104F801F582FE01319681E1DF011D922B
S11305308A95E9F780E389830F900F900E943B022C
S11305408E7F20910806247030E0359527953595E7
S11305502795822B932B8F3FBFEF9B0729F0BE017A
S11305606F5F7F4F0E944A0260E082E00E940603B0
S1130570CE0101960E948E0388E080930706DECFA9
S1130580CF93DF93CDB7DEB76B97CDBFDEBF8BE1E3
S1130590E0E0F0E2DE01119601900D928A95E1F718
S11305A04BE150E0BE016F5F7F4F8CE30E9413016B
S11305B090E06B96CDBFDEBFDF91CF910895CF93CE
S11305C0DF93CDB7DEB72797CDBFDEBF87E0EBE182
S11305D0F0E2DE01119601900D928A95E1F747E071
S11305E050E0BE016F5F7F4F8CE30E9413018111C5
S11305F007C020E032E040E060E48CE30E94F700B2
S11306002796CDBFDEBFDF91CF910895CF93DF93BF
S1130610CDB7DEB72797CDBFDEBF8830C8F46623D9
S1130620BCF08093202260932122198291E29A8364
S11306306B839FE79C8392E29D838E8387E08F8305
S113064047E050E0BE016F5F7F4F8CE30E941301CF
S11306502796CDBFDEBFDF91CF91089580912022F0
S11306608F5F87708093202260E00E9406030895C4
S11306701F93CF93DF93CDB7DEB72797CDBFDEBFF0
S1130680182F8091212290E005968038910514F46A
S11306901A3011F40E942E031A30C9F180E48983C0
S11306A080EE810F90E0282F30E0492F50E0F901CF
S11306B0EE0FFF1FEE0FFF1FE20FF31FE85CFF4D6D
S11306C0E40FF51F20814F5F5F4FE1E0F0E0EC0F96
S11306D0FD1FE40FF51F2083209121222F5F20931B
S11306E021229F5F9530F9F6E92FF0E0319681E001
S11306F090E08C0F9D1FE80FF91F10822F5F20934D
S1130700212247E050E0BC018CE30E9413012796AC
S1130710CDBFDEBFDF91CF911F910895CF93DF93BB
S1130720EC0103C021960E94380388818111FACF1D
S1130730DF91CF9108954F925F926F927F92AF9223
S1130740BF92CF92DF92EF92FF920F931F93CF93BA
S1130750DF93CDB7DEB72A97CDBFDEBFA82E6A01DF
S11307607B01022F82E0A81220C01CC0802F90E0E1
S1130770019741E050E002C0440F551F8A95E2F70B
S1130780052E000C660B770B4C215D216E217F2119
S113079081E0452B462B472B09F480E0805D0E94C5
S11307A0380301500111E2CF52C0452B462B472B91
S11307B039F010E035C080E30E9438031F5F01C0A8
S11307C010E0101708F043C01A30A8F340C0C11459
S11307D0D104E104F104D1F0BC2C4A2C512C612C3D
S11307E0712CC701B601A30192010E941D07C22EFC
S11307F0D32EE42EF52EE1E0F0E0EC0FFD1FE10F27
S1130800F11DA29EB0181124B08209C00B30E8F487
S1130810E1E0F0E0EC0FFD1FE10FF11D10821F5F1E
S11308201017A8F212C0E12FF0E0319781E090E0B8
S11308308C0F9D1FE80FF91F80818A3010F0895CAE
S113084001C0805D0E94380311501111ECCF2A962B
S1130850CDBFDEBFDF91CF911F910F91FF90EF903D
S1130860DF90CF90BF90AF907F906F905F904F904C
S113087008958F929F92AF92BF92CF92DF92EF92A0
S1130880FF926B017C010E94F3054B015C012FEF89
S1130890AB01BC018AE00E949B038EE20E943803F4
S11308A0C501B4010E9422069B01AC01C701B60137
S11308B00E94860520E034E244E759E40E94B00631
S11308C00E94F305AB01BC012FEF8AE00E949B0359
S11308D0FF90EF90DF90CF90BF90AF909F908F905C
S11308E008954F925F926F927F92AF92BF92EF9270
S11308F0FF921F93CF93DF93CDB7DEB7FE013E96F1
S1130900E190F1903F01F2C0853209F0EAC0C701DD
S11309100196D7011196EC9120ED2E0F2A3090F01C
S11309207C011FEF15C0812F880F982F990F990F05
S1130930890F8E0F10ED180FBFEFEB1AFB0AD701CA
S1130940EC9102C07C0110E080ED8E0F8A3058F3E8
S11309508E2F90E0FC01B597E435F10508F0C3C093
S1130960EA5AFF4F0C943F075301B2E0AB0EB11C9F
S1130970F30180810E9438033501B5C05301F2E0D0
S1130980AF0EB11CD3016D907C90772034F4719438
S1130990619471088DE20E943803A301770C660B01
S11309A0770B212F8AE00E949B0335019CC05301E1
S11309B0B4E0AB0EB11CF3014080518062807380BF
S11309C077205CF47094609450944094411C511CC2
S11309D0611C711C8DE20E943803212FB301A20116
S11309E08AE00E949B0335017EC05301F2E0AF0E02
S11309F0B11CD3014D915C9160E070E0212F8AE03D
S1130A000E949B0335016FC05301B4E0AB0EB11CCF
S1130A10F3014081518162817381212F8AE00E9418
S1130A209B03350160C05301F2E0AF0EB11CD3014A
S1130A304D915C9160E070E0212F80E10E949B0366
S1130A40350151C05301B4E0AB0EB11CF301408138
S1130A50518162817381212F80E10E949B033501C2
S1130A6042C05301F2E0AF0EB11CD3014D915C9131
S1130A701F3F09F410E160E070E0212F82E00E9442
S1130A809B03350130C05301B4E0AB0EB11CF3013C
S1130A9040815181628173811F3F09F410E1212F4C
S1130AA082E00E949B0335011EC05301F4E0AF0EA7
S1130AB0B11CD3016D917D918D919C910E9439045B
S1130AC0350111C05301B2E0AB0EB11CF3018081BA
S1130AD091810E948E03350106C085E20E9438038D
S1130AE002C00E943803FFEFEF1AFF0AD7018C916E
S1130AF081110ACFDF91CF911F91FF90EF90BF90AA
S1130B00AF907F906F905F904F9008955058BB279F
S1130B10AA270E949E050C9476060E94680638F067
S1130B200E946F0620F039F49F3F19F426F40C94C8
S1130B3065060EF4E095E7FB0C945F06E92F0E942E
S1130B40870658F3BA17620773078407950720F0DE
S1130B5079F4A6F50C94A9060EF4E0950B2EBA2FA1
S1130B60A02D0B01B90190010C01CA01A0011124AF
S1130B70FF27591B99F0593F50F4503E68F11A165B
S1130B80F040A22F232F342F4427585FF3CF4695EC
S1130B9037952795A795F0405395C9F77EF41F160E
S1130BA0BA0B620B730B840BBAF09150A1F0FF0FD8
S1130BB0BB1F661F771F881FC2F70EC0BA0F621FC4
S1130BC0731F841F48F4879577956795B795F795B4
S1130BD09E3F08F0B0CF9395880F08F09927EE0F49
S1130BE09795879508950E948F0688F09F5798F0EF
S1130BF0B92F9927B751B0F0E1F0660F771F881F1E
S1130C00991F1AF0BA95C9F714C0B13091F00E9437
S1130C10A906B1E008950C94A906672F782F8827B8
S1130C20B85F39F0B93FCCF3869577956795B3955E
S1130C30D9F73EF490958095709561957F4F8F4FCD
S1130C409F4F0895E89409C097FB3EF490958095D2
S1130C50709561957F4F8F4F9F4F9923A9F0F92F7E
S1130C6096E9BB279395F695879577956795B795FC
S1130C70F111F8CFFAF4BB0F11F460FF1BC06F5FE2
S1130C807F4F8F4F9F4F16C0882311F096E911C0F4
S1130C90772321F09EE8872F762F05C0662371F015
S1130CA096E8862F70E060E02AF09A95660F771F29
S1130CB0881FDAF7880F9695879597F9089597F91D
S1130CC09F6780E870E060E008959FEF80EC0895EE
S1130CD000240A9416161706180609060895002417
S1130CE00A9412161306140605060895092E039491
S1130CF0000C11F4882352F0BB0F40F4BF2B11F405
S1130D0060FF04C06F5F7F4F8F4F9F4F089557FD63
S1130D109058440F551F59F05F3F71F04795880F65
S1130D2097FB991F61F09F3F79F0879508951216FC
S1130D3013061406551FF2CF4695F1DF08C01616A8
S1130D4017061806991FF1CF869571056105089459
S1130D500895E894BB2766277727CB0197F9089570
S1130D600E94C3060C9476060E94680638F00E941E
S1130D706F0620F0952311F00C945F060C94650621
S1130D8011240C94AA060E94870670F3959FC1F360
S1130D90950F50E0551F629FF001729FBB27F00D25
S1130DA0B11D639FAA27F00DB11DAA1F649F66277A
S1130DB0B00DA11D661F829F2227B00DA11D621FC9
S1130DC0739FB00DA11D621F839FA00D611D221F83
S1130DD0749F3327A00D611D231F849F600D211D67
S1130DE0822F762F6A2F11249F5750409AF0F1F0EA
S1130DF088234AF0EE0FFF1FBB1F661F771F881F53
S1130E0091505040A9F79E3F510580F00C945F0625
S1130E100C94AA065F3FE4F3983ED4F38695779545
S1130E206795B795F795E7959F5FC1F7FE2B880FF8
S1130E30911D9695879597F90895A1E21A2EAA1BFC
S1130E40BB1BFD010DC0AA1FBB1FEE1FFF1FA21776
S1130E50B307E407F50720F0A21BB30BE40BF50B73
S1130E60661F771F881F991F1A9469F760957095FC
S1130E70809590959B01AC01BD01CF010895EE0FC3
S1110E80FF1F0590F491E02D0994F894FFCF24
S1130E8E00AED580A81FD300408D142000A0C0DA78
S1130E9E028100D9F1DB40A4A62EAF00220003216B
S1130EAE007F5374617274656400657870616E645A
S1130EBE6572207265616400000000000000002F5E
S1130ECE00000007000700147F147F14242A7F2AD1
S1130EDE122313086462364955225000050300009C
S1130EEE001C2241000041221C0014083E08140874
S1130EFE083E08080000A060000808080808006002
S1130F0E60000020100804023E5149453E00427F15
S1130F1E400042615149462141454B311814127F1C
S1130F2E1027454545393C4A4949300171090503A5
S1130F3E3649494936064949291E0036360000000D
S1130F4E56360000081422410014141414140041DF
S1130F5E2214080201510906324959513E7C1211DC
S1130F6E127C7F494949363E414141227F4141220B
S1130F7E1C7F494949417F090909013E4149497A82
S1130F8E7F0808087F00417F41002040413F017FD8
S1130F9E081422417F404040407F020C027F7F04B0
S1130FAE08107F3E4141413E7F090909063E4151E9
S1130FBE215E7F09192946464949493101017F01BC
S1130FCE013F4040403F1F2040201F3F4038403FDC
S1130FDE63140814630708700807615149454300F8
S1130FEE7F41410055AA55AA550041417F00040294
S1130FFE01020440404040400003050000205454C8
S113100E54787F484444383844444420384444484F
S113101E7F3854545418087E09010218A4A4A47CE1
S113102E7F0804047800447D40004080847D007F66
S113103E1028440000417F40007C041804787C088A
S113104E0404783844444438FC24242418182424F2
S113105E18FC7C080404084854545420043F4440AB
S113106E203C4040207C1C2040201C3C4030403C16
S113107E44281028441CA0A0A07C4464544C440072
S113108E107C82000000FF000000827C100000062D
S107109E0909060032
S9030000FC
