S02A0000786D656761313665352D6D757369632D6C69676874732D656570726F6D2D746573742E737265633F
S11300000C94AA000C94C7000C94C7000C944505EA
S11300100C94C7000C94C7000C94C7000C94C70040
S11300200C94C7000C94C7000C94C7000C942C01CA
S11300300C947A050C94C7000C94C7000C94C70068
S11300400C94C7000C94C7000C94C7000C94C70010
S11300500C94C7000C94C7000C94C7000C94C70000
S11300600C94C7000C94C7000C94C7000C94C700F0
S11300700C94C7000C94C7000C94C7000C94C700E0
S11300800C94C7000C94C7000C94C7000C94C700D0
S11300900C94C7000C94C7000C9469050C94C70019
S11300A00C94C7000C94C7000C94C700E108E7083F
S11300B0E708E708E708E708E708E708E708E708C4
S11300C0E708E708E708E708E708E708E708E708B4
S11300D0E708E708E708E708E708E708E708E708A4
S11300E0E708E708E708B70828084B08E708C9083D
S11300F0E708E708E708E708E708E708E708E70884
S1130100E708E708E708E708D608E7087808E708F3
S1130110E7089608E708E708E708E708E708E708B4
S1130120E708E708E708A50828083208E708C90827
S1130130E708E708E708E708E708E708E708E70843
S1130140E708E708E708E708D608E7086908E708C2
S1130150E708870811241FBECFEFCDBFD7E2DEBF6B
S113016013E2A0E0B0E2EEEBF6E102C005900D92DE
S1130170A83CB107D9F724E2A8ECB3E201C01D9270
S1130180AF39B207E1F70E9481040C945D0B0C9423
S1130190000084E98093850410928004E1E8F4E08F
S11301A08081886F80831092820410928304E4E833
S11301B0F4E080818D6C808308954093FD235093F7
S11301C0FE231092002410920124109202246093C2
S11301D004247093052490E0880F991F8160809314
S11301E08604809102248130E1F780E0089591E053
S11301F09093FF232093FD233093FE231092002439
S1130200109201241092FC2310920224609306247D
S113021040930324880F80938604809102248130C4
S1130220E1F780E008951092FF234093FD2350935B
S1130230FE23109200241092012410920224609351
S1130240042470930524880F8093860480910224EB
S11302508130E1F780E008951F920F920FB60F925C
S113026011242F933F934F935F938F939F93EF9317
S1130270FF938091840483FF03C083E0809383040D
S11302808091840482FD04C08091840484FF08C0AA
S1130290E3E8F4E083E0808381E0808380930224B8
S11302A080910224882331F0E4E8F4E080818064C2
S11302B0808379C08091840486FF47C08091840440
S11302C084FD43C08091FF238823C9F08091FC23DF
S11302D0882369F08091032480938704809100240B
S11302E0909101240196809300249093012480919D
S11302F006248093870481E08093FC2315C0209119
S11303000424309105248091002490910124AC01AF
S11303104F5F5F4F4093002450930124F901E80F8D
S1130320F91F808180938704209100243091012457
S11303308091FD239091FE232817390731F483E03F
S11303408093830481E08093022480918404882331
S113035054F5209104243091052480910024909137
S11303600124AC014F5F5F4F40930024509301245C
S1130370F901E80FF91F20918704208320910024BC
S1130380309101248091FD239091FE232817390791
S113039039F487E08093830481E08093022403C0CE
S11303A082E080938304FF91EF919F918F915F91FD
S11303B04F913F912F910F900FBE0F901F90189562
S11303C088ED84BF82E0809350008091510081FFCA
S11303D0FCCF88ED84BF91E09093400084BF1092DD
S11303E04100089587E08093A2000895E0E0F8E0DA
S11303F01182148283E0868310828BED95E386A3B9
S113040097A30895E0E4F8E081E08183848384E0A5
S113041080830895E0E4F9E081E08183848384E0CB
S113042080830895E0E4F9E01182148283E08783F5
S113043087E0808388E391E086A397A30895CF9211
S1130440DF92EF92FF920F931F93CF93DF936C0190
S1130450E901D70181E0F601808388819981680FE1
S1130460791FFB019081892F8295869586958370EB
S113047061E070E002C0660F771F8A95E2F7615071
S1130480F80120813181420F531FFA01208130E0AD
S11304900C9002C0359527950A94E2F720FD6FE091
S11304A0F60160839F73892F90E0009751F0880FC5
S11304B0991FFC01ED5EFE4D408151815695479593
S11304C002C040E050E0288139812F5F3F4F2883EC
S11304D039839C919F5F9C93983039F41C92F80166
S11304E080819181019680839183CA01DF91CF91AC
S11304F01F910F91FF90EF90DF90CF900895EF92AE
S1130500FF920F931F9340911A2050911B206091EA
S11305101C2070911D200F2EF7EDEF2EF3E2FF2E1D
S1130520F02D08ED13E22AED33E286ED93E20E940A
S11305301F0280936808909369081F910F91FF90A0
S1130540EF900895EF92FF920F931F934091022032
S11305505091032060910420709105200F2EFCEC33
S1130560EF2EF3E2FF2EF02D0DEC13E22FEC33E22D
S11305708BEC93E20E941F028093680990936909AF
S11305801F910F91FF90EF9008950E9434060E94EE
S1130590530660E080E00E947A068FEC91E29F931C
S11305A08F930E94E5070F900F900895CF93DF93E8
S11305B000D01F92CDB7DEB786E089838FEF8A83A0
S11305C08B8343E050E0BE016F5F7F4F80E20E9467
S11305D013012396CDBFDEBFDF91CF910895CF9352
S11305E0DF9300D0CDB7DEB78A8341E050E0BE018F
S11305F06E5F7F4F80E20E94130141E050E0BE0134
S11306006F5F7F4F80E20E94DD0089810F900F9021
S1130610DF91CF910895CF9380E00E94EF02C82F1D
S113062081E00E94EF0290E0982F88278C0F911DA3
S1130630CF910895AC0190E014C0FB01E90FF11DC6
S113064020E3208320E030E8092E02C03695279568
S11306500A94E2F724233523232B11F081E38083CA
S11306609F5F903150F3089584EF90E280931C20B3
S113067090931D2087EF93E280931A2090931B2080
S11306801092D6231092DA231092DB231092D823EF
S11306901092D9231092D72384ED93E280930420FF
S11306A09093052089E190E28093022090930320A7
S11306B01092CB231092CF231092D0231092CD23EB
S11306C01092CE231092CC230E947F020E94A20299
S11306D0089580EC80938101E0E0F8E080EB94E001
S11306E086A397A387E08083E0E0F3E081E0818341
S11306F098E09283838385E08083E0E0F1E080E406
S1130700808B81E3828B85E1848B83E1818B80E81C
S11307108083089570E0660F771FE0E0F1E0668B58
S1130720778B808F918F85E8808B0895CF93DF93AB
S113073088E080930506E091CA23F0E03796EE0F37
S1130740FF1FED5EFE4D80819181C0E4D8E088A753
S113075099A76DE083E991E20E948A0384E088838B
S1130760DF91CF91089588E080930606E0E0F1E000
S113077081898061818BE0E4F8E010A211A21082EB
S11307800895982FE0E6F6E08481282F2F71892FB1
S113079090E00196880F991F82959295907F9827F3
S11307A0807F9827822B84830895CF93C82FE0E617
S11307B0F6E080EE81838683E0E0F6E088E08183E2
S11307C084E0818380E8809341068C2F0E94C103DA
S11307D0CC2319F0C130B9F02CC00E9402020E944F
S11307E012020E946903E0E4F6E080E8858380E178
S11307F08183E0E0F6E080EF828388E1848B858B5F
S1130800868B878B16C00E94F6010E9402020E940A
S11308100A020E943403E0E4F6E080E8868380E183
S113082080936106818384E08093050686E080934B
S11308300008CF91089540E03FC0242F30E0F90133
S1130840EE0FFF1FE20FF31FE95FFB4D11821082D1
S113085012828091C923B901680F711DCB0163E035
S113086070E00E94EF0A8130910581F08230910599
S1130870C1F0892B01F5F901EE0FFF1F2E0F3F1F69
S1130880F901E95FFB4D80E4818315C0F901EE0FA6
S1130890FF1F2E0F3F1FF901E95FFB4D80E48083AA
S11308A00AC0F901EE0FFF1F2E0F3F1FF901E95F88
S11308B0FB4D80E482834F5F423308F4BECF8091C6
S11308C0C9238F5F8093C923089581E090E00E943B
S11308D03F0B0895682F81E090E00E94470B089534
S11308E088ED84BF83E0809380000895E0E0F6E023
S11308F081E0828388E1808B0E9465048093FB23DE
S11309000895CF93DF93CDB7DEB76197CDBFDEBF38
S1130910F8940E94E0010E94F2010E94C9007894B8
S11309200E94C5020E94D6020E9476048091FB2395
S11309300E94D5030E94FA0888E0809305068091FE
S1130940080680FFFCCF60E081E00E947A06809177
S1130950FB2390E001969F938F9387ED91E29F9301
S11309608F930E94E507FE01319681E1DF011D921C
S11309708A95E9F780E389830F900F900F900F9089
S113098000E010E0D12C8091080680FD1EC0BFEF6E
S113099023EC89E0B15020408040E1F700C0000022
S11309A08091FB238F5F8093FB238091FB23823014
S11309B010F01092FB238091FB230E946A04809123
S11309C0080680FFFCCF0E9470040E940B037C0188
S11309D08091FB23811155C08091080690E0809599
S11309E09095807F99279595879595958795959569
S11309F08795959587958093CA2360E083E00E944C
S1130A007A068091CA231F928F9381EE91E29F937D
S1130A108F930E94E5078091CA230F900F900F9047
S1130A200F90882349F00E151F0531F0D11004C032
S1130A300E949603DD24D3940E151F0509F4D12CCE
S1130A409FEFE916F90639F0BE016F5F7F4FC701CA
S1130A500E941A03870160E082E00E947A06CE01B8
S1130A6001960E9402078091C8238A3050F00E94A8
S1130A701B0462E370E087E094E20E944A0910924A
S1130A80C82388E0809307067ECF1F920F920FB68B
S1130A900F9211242F933F934F935F936F937F9300
S1130AA08F939F93AF93BF93EF93FF930E94B303EE
S1130AB0FF91EF91BF91AF919F918F917F916F9132
S1130AC05F914F913F912F910F900FBE0F901F9008
S1130AD018951F920F920FB60F9211248F93809145
S1130AE0C8238F5F8093C8238F910F900FBE0F9000
S1130AF01F9018951F920F920FB60F9211242F93E7
S1130B003F934F935F936F937F938F939F93AF9391
S1130B10BF93EF93FF9384E08093050681E0809375
S1130B200C088091D623811137C0E0E4F8E01082EC
S1130B3010A611A62091DA233091DB2380911E2088
S1130B4090911F202817390720F1809101208823D4
S1130B50A1F01092012084ED90E080931E209093E8
S1130B601F2080E290E280931C2090931D208CED46
S1130B7093E280931A2090931B201092D623109214
S1130B80DA231092DB231092D8231092D9231092E7
S1130B90D7230E947F0203C081508093D623809183
S1130BA0CB23811137C0E0E4F9E0108210A611A62E
S1130BB02091CF233091D02380910620909107205B
S1130BC02817390720F1809100208823A1F0109282
S1130BD0002081E190E0809306209093072088E034
S1130BE090E2809304209093052081ED93E280931A
S1130BF00220909303201092CB231092CF231092C3
S1130C00D0231092CD231092CE231092CC230E9495
S1130C10A20203C081508093CB230E941B0462E391
S1130C2070E087E094E20E944A092FEF83EF91E09D
S1130C30215080409040E1F700C0000084E08093A0
S1130C40400880934009FF91EF91BF91AF919F912C
S1130C508F917F916F915F914F913F912F910F9061
S1130C600FBE0F901F901895CF93DF93CDB7DEB7CB
S1130C706B97CDBFDEBF8BE1EDEAF1E2DE011196A9
S1130C8001900D928A95E1F74BE150E0BE016F5F50
S1130C907F4F8CE30E94130190E06B96CDBFDEBFC3
S1130CA0DF91CF910895CF93DF93CDB7DEB7279728
S1130CB0CDBFDEBF87E0E8ECF1E2DE0111960190E2
S1130CC00D928A95E1F747E050E0BE016F5F7F4FD8
S1130CD08CE30E941301811107C020E032E040E060
S1130CE060E48CE30E94F7002796CDBFDEBFDF915E
S1130CF0CF910895CF93DF93CDB7DEB72797CDBFBC
S1130D00DEBF8830C8F46623BCF080939D246093D2
S1130D109E24198291E29A836B839FE79C8392E2DB
S1130D209D838E8387E08F8347E050E0BE016F5F31
S1130D307F4F8CE30E9413012796CDBFDEBFDF9166
S1130D40CF91089580919D248F5F877080939D2417
S1130D5060E00E947A0608951F93CF93DF93CDB786
S1130D60DEB72797CDBFDEBF182F80919E2490E079
S1130D7005968038910514F41A3011F40E94A206E5
S1130D801A30C9F180E4898380EE810F90E0282F26
S1130D9030E0492F50E0F901EE0FFF1FEE0FFF1F67
S1130DA0E20FF31FE351FE4DE40FF51F20814F5F67
S1130DB05F4FE1E0F0E0EC0FFD1FE40FF51F20832F
S1130DC020919E242F5F20939E249F5F9530F9F6F7
S1130DD0E92FF0E0319681E090E08C0F9D1FE80F41
S1130DE0F91F10822F5F20939E2447E050E0BC013E
S1130DF08CE30E9413012796CDBFDEBFDF91CF9114
S1130E001F910895CF93DF93EC0103C021960E94B4
S1130E10AC0688818111FACFDF91CF9108954F926A
S1130E205F926F927F92AF92BF92CF92DF92EF92D6
S1130E30FF920F931F93CF93DF93CDB7DEB72A971B
S1130E40CDBFDEBFA82E6A017B01022F82E0A8126B
S1130E5020C01CC0802F90E0019741E050E002C008
S1130E60440F551F8A95E2F7052E000C660B770B8D
S1130E704C215D216E217F2181E0452B462B472BA0
S1130E8009F480E0805D0E94AC0601500111E2CFBC
S1130E9052C0452B462B472B39F010E035C080E378
S1130EA00E94AC061F5F01C010E0101708F043C099
S1130EB01A30A8F340C0C114D104E104F104D1F004
S1130EC0BC2C4A2C512C612C712CC701B601A301F6
S1130ED092010E94030BC22ED32EE42EF52EE1E0E4
S1130EE0F0E0EC0FFD1FE10FF11DA29EB0181124DC
S1130EF0B08209C00B30E8F4E1E0F0E0EC0FFD1F34
S1130F00E10FF11D10821F5F1017A8F212C0E12F2C
S1130F10F0E0319781E090E08C0F9D1FE80FF91FFE
S1130F2080818A3010F0895C01C0805D0E94AC062B
S1130F3011501111ECCF2A96CDBFDEBFDF91CF91B6
S1130F401F910F91FF90EF90DF90CF90BF90AF90E3
S1130F507F906F905F904F9008958F929F92AF9281
S1130F60BF92CF92DF92EF92FF926B017C010E94BD
S1130F70C5094B015C012FEFAB01BC018AE00E9463
S1130F800F078EE20E94AC06C501B4010E94F40969
S1130F909B01AC01C701B6010E94580920E034E26C
S1130FA044E759E40E94820A0E94C509AB01BC01CE
S1130FB02FEF8AE00E940F07FF90EF90DF90CF9011
S1130FC0BF90AF909F908F9008954F925F926F92D1
S1130FD07F92AF92BF92EF92FF921F93CF93DF93D2
S1130FE0CDB7DEB7FE013E96E190F1903F01F2C02D
S1130FF0853209F0EAC0C7010196D7011196EC9138
S113100020ED2E0F2A3090F07C011FEF15C0812FA8
S1131010880F982F990F990F890F8E0F10ED180FC5
S1131020BFEFEB1AFB0AD701EC9102C07C0110E080
S113103080ED8E0F8A3058F38E2F90E0FC01B59727
S1131040E435F10508F0C3C0EA5AFF4F0C94250BB0
S11310505301B2E0AB0EB11CF30180810E94AC06D7
S11310603501B5C05301F2E0AF0EB11CD3016D9050
S11310707C90772034F47194619471088DE20E941D
S1131080AC06A301770C660B770B212F8AE00E9434
S11310900F0735019CC05301B4E0AB0EB11CF30142
S11310A0408051806280738077205CF470946094F7
S11310B050944094411C511C611C711C8DE20E948F
S11310C0AC06212FB301A2018AE00E940F0735016B
S11310D07EC05301F2E0AF0EB11CD3014D915C917F
S11310E060E070E0212F8AE00E940F0735016FC095
S11310F05301B4E0AB0EB11CF30140815181628114
S11311007381212F8AE00E940F07350160C05301CB
S1131110F2E0AF0EB11CD3014D915C9160E070E040
S1131120212F80E10E940F07350151C05301B4E023
S1131130AB0EB11CF3014081518162817381212F77
S113114080E10E940F07350142C05301F2E0AF0E67
S1131150B11CD3014D915C911F3F09F410E160E093
S113116070E0212F82E00E940F07350130C0530147
S1131170B4E0AB0EB11CF3014081518162817381F3
S11311801F3F09F410E1212F82E00E940F0735016F
S11311901EC05301F4E0AF0EB11CD3016D917D91DB
S11311A08D919C910E94AD07350111C05301B2E0AD
S11311B0AB0EB11CF301808191810E9402073501BD
S11311C006C085E20E94AC0602C00E94AC06FFEF96
S11311D0EF1AFF0AD7018C9181110ACFDF91CF91C9
S11311E01F91FF90EF90BF90AF907F906F905F90B2
S11311F04F900895A0E0B1E080EB8C93D1961C92BF
S1131200D19781E0D2968C93D297D3961C92D397A0
S1131210E0ECF9E0DC96ED93FC93DD979DE6D49643
S11312209C93A0E6B6E050961C92509751968C93EE
S1131230519783E053968C9353979BE011969C931C
S1131240A0E8B1E09BE69C9318961C92189799E647
S113125016969C9316971E961C9293E1968317827A
S1131260128292EC9483158298E09383E0E6F4E092
S113127091E1948385838EE9868386E186878DE078
S1131280848784E5808380E5818380E4828380EAA7
S113129083830895E0E0F1E080AF91AFCB01880F44
S11312A0991F680F791F66AB77AB84E880AB08950C
S11312B05058BB27AA270E9470090C94480A0E9420
S11312C03A0A38F00E94410A20F039F49F3F19F499
S11312D026F40C94370A0EF4E095E7FB0C94310ADB
S11312E0E92F0E94590A58F3BA1762077307840753
S11312F0950720F079F4A6F50C947B0A0EF4E0959A
S11313000B2EBA2FA02D0B01B90190010C01CA01BB
S1131310A0011124FF27591B99F0593F50F4503E66
S113132068F11A16F040A22F232F342F4427585F58
S1131330F3CF469537952795A795F0405395C9F770
S11313407EF41F16BA0B620B730B840BBAF0915028
S1131350A1F0FF0FBB1F661F771F881FC2F70EC0C7
S1131360BA0F621F731F841F48F48795779567959A
S1131370B795F7959E3F08F0B0CF9395880F08F086
S11313809927EE0F9795879508950E94610A88F032
S11313909F5798F0B92F9927B751B0F0E1F0660F35
S11313A0771F881F991F1AF0BA95C9F714C0B13076
S11313B091F00E947B0AB1E008950C947B0A672F98
S11313C0782F8827B85F39F0B93FCCF386957795A5
S11313D06795B395D9F73EF490958095709561958E
S11313E07F4F8F4F9F4F0895E89409C097FB3EF4B9
S11313F090958095709561957F4F8F4F9F4F99235E
S1131400A9F0F92F96E9BB279395F69587957795DB
S11314106795B795F111F8CFFAF4BB0F11F460FF9B
S11314201BC06F5F7F4F8F4F9F4F16C0882311F0F3
S113143096E911C0772321F09EE8872F762F05C007
S1131440662371F096E8862F70E060E02AF09A95A2
S1131450660F771F881FDAF7880F9695879597F997
S1131460089597F99F6780E870E060E008959FEF22
S113147080EC089500240A94161617061806090627
S1131480089500240A9412161306140605060895F6
S1131490092E0394000C11F4882352F0BB0F40F47E
S11314A0BF2B11F460FF04C06F5F7F4F8F4F9F4FBE
S11314B0089557FD9058440F551F59F05F3F71F040
S11314C04795880F97FB991F61F09F3F79F08795A7
S11314D00895121613061406551FF2CF4695F1DF30
S11314E008C0161617061806991FF1CF86957105C0
S11314F0610508940895E894BB2766277727CB01F4
S113150097F908950E94950A0C94480A0E943A0A91
S113151038F00E94410A20F0952311F00C94310A0E
S11315200C94370A11240C947C0A0E94590A70F313
S1131530959FC1F3950F50E0551F629FF001729F74
S1131540BB27F00DB11D639FAA27F00DB11DAA1F83
S1131550649F6627B00DA11D661F829F2227B00DD0
S1131560A11D621F739FB00DA11D621F839FA00D5B
S1131570611D221F749F3327A00D611D231F849FAB
S1131580600D211D822F762F6A2F11249F57504002
S11315909AF0F1F088234AF0EE0FFF1FBB1F661F7D
S11315A0771F881F91505040A9F79E3F510580F046
S11315B00C94310A0C947C0A5F3FE4F3983ED4F314
S11315C0869577956795B795F795E7959F5FC1F7EA
S11315D0FE2B880F911D9695879597F9089597FB93
S11315E0072E16F4009407D077FD09D00E942B0B28
S11315F007FC05D03EF4909581959F4F0895709512
S113160061957F4F0895A1E21A2EAA1BBB1BFD0111
S11316100DC0AA1FBB1FEE1FFF1FA217B307E407CD
S1131620F50720F0A21BB30BE40BF50B661F771F25
S1131630881F991F1A9469F7609570958095909505
S11316409B01AC01BD01CF010895EE0FFF1F059072
S1131650F491E02D0994AA1BBB1B51E107C0AA1FFA
S1131660BB1FA617B70710F0A61BB70B881F991F3F
S11316705A95A9F780959095BC01CD01089503D0A2
S1131680808199270895FC01E050F04F0895262F9A
S1131690AF93BF93E0ECF1E0378537FDFDCFDC017C
S11316A0A050B04F2C9325E3228728ED31E024BFCE
S11116B033870196BF91AF910895F894FFCF50
S11316BE01011920D423020075697367766A716576
S11316CE786C73673A2E7A787603F723F4201F002A
S11316DE4F4D155214131456565453131416141204
S11316EE0F0D120F1412161416524F0D120F141250
S11316FE16151213141614531614120F141314165B
S113170E5456544F4D155214131456565453131411
S113171E1614120F0D120F1412161416524F0D1218
S113172E0F141216151213141614531614120F1432
S113173E131416545656561B19561B1916141216F4
S113174E1112110F56561B19161B111214161D1EAB
S113175E1D1B561B19561B1916161412161B191B74
S113176E561617161B19161112110F5657561B190A
S113177E561B19161412161112110F56561B191642
S113178E1B111214161D1E1D1B561B19561B191642
S113179E161412161B191B561617161B1916111290
S11317AE110F565412110F000A1112110F0A0605C9
S11317BE060B0A000F0012110F004A080B0A080547
S11317CE060508B404FC0448059805EC054806A86B
S11317DE060C077807E8076008E0086809F809901E
S11317EE0A300BD80B900C4C0D180EF00ED00FC403
S11317FE10C011D012F0131C156016B4171C199CCE
S113180E1A301CDC1DA41F84218423A025DC273C54
S113181E2AC02C682F383234356038B83B483F081C
S113182E430447404BB84F74547C59CC5E70646883
S113183E6ABC707077887E14860C8E8096709FECCE
S113184EA8FCB2FF0FA00FD80EAC0D1C0C280AD0AA
S113185E071405F40190012C01C800640000AED5F4
S113186E80A81FD300408D142000A0C0DA0281008E
S113187ED9F1DB40A4A62EAF0022000321007F5332
S113188E746172746564004D6F64653A2025642E2C
S113189E00627574746F6E733A2025640000000044
S11318AE000000002F00000007000700147F147FC3
S11318BE14242A7F2A1223130864623649552250AF
S11318CE0005030000001C2241000041221C0014EC
S11318DE083E081408083E08080000A06000080826
S11318EE080808006060000020100804023E5149F8
S11318FE453E00427F400042615149462141454BDD
S113190E311814127F1027454545393C4A49493050
S113191E01710905033649494936064949291E000C
S113192E3636000000563600000814224100141406
S113193E14141400412214080201510906324959A3
S113194E513E7C1211127C7F494949363E41414138
S113195E227F4141221C7F494949417F09090901DE
S113196E3E4149497A7F0808087F00417F410020A3
S113197E40413F017F081422417F404040407F0296
S113198E0C027F7F0408107F3E4141413E7F0909CE
S113199E09063E4151215E7F0919294646494949A6
S11319AE3101017F01013F4040403F1F2040201F75
S11319BE3F4038403F6314081463070870080761FA
S11319CE51494543007F41410055AA55AA5500414E
S11319DE417F0004020102044040404040000305E0
S11319EE000020545454787F4844443838444444C6
S11319FE20384444487F3854545418087E09010250
S1131A0E18A4A4A47C7F0804047800447D400040FC
S1131A1E80847D007F1028440000417F40007C04B8
S1131A2E1804787C080404783844444438FC24248C
S1131A3E241818242418FC7C08040408485454540C
S1131A4E20043F4440203C4040207C1C2040201C6D
S1131A5E3C4030403C44281028441CA0A0A07C44A8
S1131A6E64544C4400107C82000000FF000000828D
S10B1A7E7C10000006090906B2
S9030000FC
