S0250000786D656761313665352D656570726F6D2D726573746172742D746573742E7372656318
S11300000C94AA000C94C7000C94C7000C94C7006D
S11300100C94C7000C94C7000C94C7000C94C70040
S11300200C94C7000C94C7000C94C7000C941201E4
S11300300C94C7000C94C7000C94C7000C94C70020
S11300400C94C7000C94C7000C94C7000C94C70010
S11300500C94C7000C94C7000C94C7000C94C70000
S11300600C94C7000C94C7000C94C7000C94C700F0
S11300700C94C7000C94C7000C94C7000C94C700E0
S11300800C94C7000C94C7000C94C7000C94C700D0
S11300900C94C7000C94C7000C94C7000C94C700C0
S11300A00C94C7000C94C7000C94C700F604FC041D
S11300B0FC04FC04FC04FC04FC04FC04FC04FC043C
S11300C0FC04FC04FC04FC04FC04FC04FC04FC042C
S11300D0FC04FC04FC04FC04FC04FC04FC04FC041C
S11300E0FC04FC04FC04CC043D046004FC04DE04B5
S11300F0FC04FC04FC04FC04FC04FC04FC04FC04FC
S1130100FC04FC04FC04FC04EB04FC048D04FC046B
S1130110FC04AB04FC04FC04FC04FC04FC04FC042C
S1130120FC04FC04FC04BA043D044704FC04DE049F
S1130130FC04FC04FC04FC04FC04FC04FC04FC04BB
S1130140FC04FC04FC04FC04EB04FC047E04FC043A
S1130150FC049C0411241FBECFEFCDBFD7E2DEBF49
S113016012E2A0E0B0E2ECEDFDE002C005900D92D9
S1130170A031B107D9F722E2A0E1B2E201C01D9299
S1130180AE31B207E1F70E94FC010C94EC060C942A
S1130190000084E98093850410928004E1E8F4E08F
S11301A08081886F80831092820410928304E4E833
S11301B0F4E080818D6C8083089591E09093142203
S11301C02093122230931322109215221092162299
S11301D0109211221092172260931B22409318222E
S11301E0880F80938604809117228130E1F780E0A4
S11301F008951092142240931222509313221092C5
S113020015221092162210921722609319227093CD
S11302101A22880F80938604809117228130E1F797
S113022080E008951F920F920FB60F9211242F931E
S11302303F934F935F938F939F93EF93FF9380919B
S1130240840483FF03C083E0809383048091840447
S113025082FD04C08091840484FF06C0E3E8F4E0D6
S113026083E0808381E0808380911722882331F0AA
S1130270E4E8F4E080818064808379C08091840420
S113028086FF47C08091840484FD43C0809114227A
S11302908823C9F080911122882369F08091182263
S11302A08093870480911522909116220196809361
S11302B015229093162280911B228093870481E05B
S11302C08093112215C02091192230911A22809115
S11302D0152290911622AC014F5F5F4F4093152277
S11302E050931622F901E80FF91F80818093870447
S11302F0209115223091162280911222909113227E
S11303002817390731F483E08093830481E08093D4
S1130310172280918404882354F520911922309166
S11303201A228091152290911622AC014F5F5F4FE3
S11303304093152250931622F901E80FF91F2091DA
S11303408704208320911522309116228091122255
S1130350909113222817390739F487E08093830496
S113036081E08093172203C082E080938304FF918D
S1130370EF919F918F915F914F913F912F910F90AA
S11303800FBE0F901F90189588ED84BF82E0809374
S113039050008091510081FFFCCF88ED84BF91E033
S11303A09093400084BF10924100089587E08093A9
S11303B0A20008950E9449020E94680260E080E061
S11303C00E948F0282E290E29F938F930E94FA032D
S11303D00F900F90089581E090E00E94CE0608955A
S11303E0682F81E090E00E94D606089588ED84BFCE
S11303F083E0809380000895F8940E94C4010E94D1
S1130400D6010E94C90078940E94DA01E0E0F6E087
S113041080E1828388E1848B8091080684FFFCCF8D
S11304200E94EB018093102260E081E00E948F0221
S1130430809110221F928F938AE290E29F938F9370
S11304400E94FA030F900F900F900F90809108066E
S113045084FDFCCF2FEF83EC99E021508040904045
S1130460E1F700C00000809110228F5F809310227A
S113047080911022883010F0109210228091102266
S11304800E94F0018091080684FFFCCF0E94F601CF
S1130490DDCFCF93DF93CDB7DEB76B97CDBFDEBF94
S11304A08BE1E0E0F0E2DE01119601900D928A9575
S11304B0E1F74BE150E0BE016F5F7F4F8CE30E9498
S11304C0F90090E06B96CDBFDEBFDF91CF91089528
S11304D0CF93DF93CDB7DEB72797CDBFDEBF87E0DD
S11304E0EBE1F0E2DE01119601900D928A95E1F7BD
S11304F047E050E0BE016F5F7F4F8CE30E94F9003C
S1130500811107C020E032E040E060E48CE30E9407
S1130510DD002796CDBFDEBFDF91CF910895CF9345
S1130520DF93CDB7DEB72797CDBFDEBF8830C8F4E1
S11305306623BCF080931C2260931D22198291E2F1
S11305409A836B839FE79C8392E29D838E8387E0EB
S11305508F8347E050E0BE016F5F7F4F8CE30E94C2
S1130560F9002796CDBFDEBFDF91CF91089580912A
S11305701C228F5F877080931C2260E00E948F0290
S113058008951F93CF93DF93CDB7DEB72797CDBFE1
S1130590DEBF182F80911D2290E0059680389105CA
S11305A014F41A3011F40E94B7021A30C9F180E42D
S11305B0898380EE810F90E0282F30E0492F50E0AE
S11305C0F901EE0FFF1FEE0FFF1FE20FF31FEC5CAC
S11305D0FF4DE40FF51F20814F5F5F4FE1E0F0E036
S11305E0EC0FFD1FE40FF51F208320911D222F5FC8
S11305F020931D229F5F9530F9F6E92FF0E03196A4
S113060081E090E08C0F9D1FE80FF91F10822F5F8F
S113061020931D2247E050E0BC018CE30E94F900C6
S11306202796CDBFDEBFDF91CF911F910895CF9361
S1130630DF93EC0103C021960E94C10288818111DD
S1130640FACFDF91CF9108954F925F926F927F928C
S1130650AF92BF92CF92DF92EF92FF920F931F93CC
S1130660CF93DF93CDB7DEB72A97CDBFDEBFA82ED9
S11306706A017B01022F82E0A81220C01CC0802FD7
S113068090E0019741E050E002C0440F551F8A9565
S1130690E2F7052E000C660B770B4C215D216E21D1
S11306A07F2181E0452B462B472B09F480E0805DB8
S11306B00E94C10201500111E2CF52C0452B462BCA
S11306C0472B39F010E035C080E30E94C1021F5F60
S11306D001C010E0101708F043C01A30A8F340C05E
S11306E0C114D104E104F104D1F0BC2C4A2C512CE6
S11306F0612C712CC701B601A30192010E94A606C8
S1130700C22ED32EE42EF52EE1E0F0E0EC0FFD1F17
S1130710E10FF11DA29EB0181124B08209C00B3064
S1130720E8F4E1E0F0E0EC0FFD1FE10FF11D1082B1
S11307301F5F1017A8F212C0E12FF0E0319781E09B
S113074090E08C0F9D1FE80FF91F80818A3010F014
S1130750895C01C0805D0E94C10211501111ECCF6F
S11307602A96CDBFDEBFDF91CF911F910F91FF90ED
S1130770EF90DF90CF90BF90AF907F906F905F909D
S11307804F9008958F929F92AF92BF92CF92DF9233
S1130790EF92FF926B017C010E947C054B015C018E
S11307A02FEFAB01BC018AE00E9424038EE20E9479
S11307B0C102C501B4010E94AB059B01AC01C70194
S11307C0B6010E940F0520E034E244E759E40E9498
S11307D039060E947C05AB01BC012FEF8AE00E9420
S11307E02403FF90EF90DF90CF90BF90AF909F9045
S11307F08F9008954F925F926F927F92AF92BF92C3
S1130800EF92FF921F93CF93DF93CDB7DEB7FE0134
S11308103E96E190F1903F01F2C0853209F0EAC0C2
S1130820C7010196D7011196EC9120ED2E0F2A30C5
S113083090F07C011FEF15C0812F880F982F990F1E
S1130840990F890F8E0F10ED180FBFEFEB1AFB0AEB
S1130850D701EC9102C07C0110E080ED8E0F8A304C
S113086058F38E2F90E0FC01B597E435F10508F0BC
S1130870C3C0EA5AFF4F0C94C8065301B2E0AB0E52
S1130880B11CF30180810E94C1023501B5C053013E
S1130890F2E0AF0EB11CD3016D907C90772034F45C
S11308A07194619471088DE20E94C102A301770CD6
S11308B0660B770B212F8AE00E94240335019CC02C
S11308C05301B4E0AB0EB11CF3014080518062804F
S11308D0738077205CF47094609450944094411C2D
S11308E0511C611C711C8DE20E94C102212FB301B5
S11308F0A2018AE00E94240335017EC05301F2E084
S1130900AF0EB11CD3014D915C9160E070E0212FDA
S11309108AE00E94240335016FC05301B4E0AB0E9A
S1130920B11CF3014081518162817381212F8AE0DE
S11309300E942403350160C05301F2E0AF0EB11CE4
S1130940D3014D915C9160E070E0212F80E10E9421
S11309502403350151C05301B4E0AB0EB11CF301C3
S11309604081518162817381212F80E10E9424039F
S1130970350142C05301F2E0AF0EB11CD3014D91D9
S11309805C911F3F09F410E160E070E0212F82E0E8
S11309900E942403350130C05301B4E0AB0EB11CF6
S11309A0F30140815181628173811F3F09F410E199
S11309B0212F82E00E94240335011EC05301F4E07C
S11309C0AF0EB11CD3016D917D918D919C910E94CC
S11309D0C203350111C05301B2E0AB0EB11CF301E7
S11309E0808191810E941703350106C085E20E942F
S11309F0C10202C00E94C102FFEFEF1AFF0AD70131
S1130A008C9181110ACFDF91CF911F91FF90EF90CC
S1130A10BF90AF907F906F905F904F900895505823
S1130A20BB27AA270E9427050C94FF050E94F10505
S1130A3038F00E94F80520F039F49F3F19F426F4A9
S1130A400C94EE050EF4E095E7FB0C94E805E92F11
S1130A500E94100658F3BA176207730784079507B4
S1130A6020F079F4A6F50C9432060EF4E0950B2EE2
S1130A70BA2FA02D0B01B90190010C01CA01A001EC
S1130A801124FF27591B99F0593F50F4503E68F147
S1130A901A16F040A22F232F342F4427585FF3CF88
S1130AA0469537952795A795F0405395C9F77EF459
S1130AB01F16BA0B620B730B840BBAF09150A1F0A2
S1130AC0FF0FBB1F661F771F881FC2F70EC0BA0F28
S1130AD0621F731F841F48F4879577956795B795B0
S1130AE0F7959E3F08F0B0CF9395880F08F09927AB
S1130AF0EE0F9795879508950E94180688F09F57E2
S1130B0098F0B92F9927B751B0F0E1F0660F771F2D
S1130B10881F991F1AF0BA95C9F714C0B13091F023
S1130B200E943206B1E008950C943206672F782FA4
S1130B308827B85F39F0B93FCCF3869577956795E8
S1130B40B395D9F73EF490958095709561957F4F54
S1130B508F4F9F4F0895E89409C097FB3EF49095FA
S1130B608095709561957F4F8F4F9F4F9923A9F082
S1130B70F92F96E9BB279395F69587957795679511
S1130B80B795F111F8CFFAF4BB0F11F460FF1BC055
S1130B906F5F7F4F8F4F9F4F16C0882311F096E9E8
S1130BA011C0772321F09EE8872F762F05C0662396
S1130BB071F096E8862F70E060E02AF09A95660F4F
S1130BC0771F881FDAF7880F9695879597F9089508
S1130BD097F99F6780E870E060E008959FEF80ECEC
S1130BE0089500240A94161617061806090608958F
S1130BF000240A9412161306140605060895092EF5
S1130C000394000C11F4882352F0BB0F40F4BF2B63
S1130C1011F460FF04C06F5F7F4F8F4F9F4F0895A3
S1130C2057FD9058440F551F59F05F3F71F0479599
S1130C30880F97FB991F61F09F3F79F0879508957E
S1130C40121613061406551FF2CF4695F1DF08C09D
S1130C50161617061806991FF1CF869571056105BA
S1130C6008940895E894BB2766277727CB0197F962
S1130C7008950E944C060C94FF050E94F10538F07B
S1130C800E94F80520F0952311F00C94E8050C94CB
S1130C90EE0511240C9433060E94100670F3959F00
S1130CA0C1F3950F50E0551F629FF001729FBB275F
S1130CB0F00DB11D639FAA27F00DB11DAA1F649FFB
S1130CC06627B00DA11D661F829F2227B00DA11DAE
S1130CD0621F739FB00DA11D621F839FA00D611D34
S1130CE0221F749F3327A00D611D231F849F600D55
S1130CF0211D822F762F6A2F11249F5750409AF07E
S1130D00F1F088234AF0EE0FFF1FBB1F661F771F09
S1130D10881F91505040A9F79E3F510580F00C94D4
S1130D20E8050C9433065F3FE4F3983ED4F38695CC
S1130D3077956795B795F795E7959F5FC1F7FE2B74
S1130D40880F911D9695879597F90895A1E21A2E1B
S1130D50AA1BBB1BFD010DC0AA1FBB1FEE1FFF1F5B
S1130D60A217B307E407F50720F0A21BB30BE40BAB
S1130D70F50B661F771F881F991F1A9469F76095F2
S1130D807095809590959B01AC01BD01CF010895AC
S1130D90EE0FFF1F0590F491E02D099403D080819C
S1130DA099270895FC01E050F04F0895262FAF9342
S1130DB0BF93E0ECF1E0378537FDFDCFDC01A050B7
S1130DC0B04F2C9325E3228728ED31E024BF3387ED
S10F0DD00196BF91AF910895F894FFCFF5
S1130DDC00AED580A81FD300408D142000A0C0DA2B
S1130DEC028100D9F1DB40A4A62EAF00220003211E
S1130DFC007F53746172746564004D6F64653A20AE
S1130E0C25642E00000000000000002F00000007E5
S1130E1C000700147F147F14242A7F2A122313083A
S1130E2C646236495522500005030000001C22411F
S1130E3C000041221C0014083E081408083E08084F
S1130E4C0000A0600008080808080060600000208A
S1130E5C100804023E5149453E00427F4000426165
S1130E6C5149462141454B311814127F10274545F1
S1130E7C45393C4A49493001710905033649494908
S1130E8C36064949291E0036360000005636000045
S1130E9C08142241001414141414004122140802DE
S1130EAC01510906324959513E7C1211127C7F4979
S1130EBC4949363E414141227F4141221C7F4949E7
S1130ECC49417F090909013E4149497A7F080808CB
S1130EDC7F00417F41002040413F017F08142241A3
S1130EEC7F404040407F020C027F7F0408107F3E0D
S1130EFC4141413E7F090909063E4151215E7F096A
S1130F0C192946464949493101017F01013F4040B5
S1130F1C403F1F2040201F3F4038403F63140814BB
S1130F2C6307087008076151494543007F4141003C
S1130F3C55AA55AA550041417F0004020102044000
S1130F4C40404040000305000020545454787F482E
S1130F5C4444383844444420384444487F38545436
S1130F6C5418087E09010218A4A4A47C7F08040464
S1130F7C7800447D40004080847D007F102844002C
S1130F8C00417F40007C041804787C080404783801
S1130F9C44444438FC2424241818242418FC7C08C5
S1130FAC0404084854545420043F4440203C40401A
S1130FBC207C1C2040201C3C4030403C4428102801
S1130FCC441CA0A0A07C4464544C4400107C8200BB
S1130FDC0000FF000000827C1000000609090600D6
S9030000FC
