S0210000786D656761313665352D78636C2D7773323831322D746573742E73726563AB
S11300000C9456000C9468000C9468000C946800DE
S11300100C9468000C9468000C9468000C946800BC
S11300200C9468000C9468000C9468000C946800AC
S11300300C9468000C9468000C9468000C9468009C
S11300400C9468000C9468000C9468000C9468008C
S11300500C9468000C9468000C9468000C9468007C
S11300600C9468000C9468000C9468000C9468006C
S11300700C9468000C9468000C9468000C9468005C
S11300800C9468000C9468000C9468000C9468004C
S11300900C9468000C9468000C9468000C9468003C
S11300A00C9468000C9468000C94680011241FBE22
S11300B0CFEFCDBFD7E2DEBF20E2A0E0B0E201C0C7
S11300C01D92A739B207E1F70E94CA000C9470018F
S11300D00C94000088ED84BF82E0809350008091EE
S11300E0510081FFFCCF88ED84BF91E090934000E4
S11300F084BF10924100089587E08093A200089580
S113010040E03FC0242F30E0F901EE0FFF1FE20F63
S1130110F31FEF5FFF4D1182108212828091002045
S1130120B901680F711DCB0163E070E00E944801C2
S11301308130910581F082309105C1F0892B01F560
S1130140F901EE0FFF1F2E0F3F1FF901EF5FFF4D67
S113015080E4818315C0F901EE0FFF1F2E0F3F1FAE
S1130160F901EF5FFF4D80E480830AC0F901EE0FCF
S1130170FF1F2E0F3F1FF901EF5FFF4D80E48283C5
S11301804F5F423308F4BECF809100208F5F80938D
S113019000200895F8940E946A000E947C007894DC
S11301A00E94EA0088E08093010688E080930706B5
S11301B00E94800062E370E081E090E20E943A01D4
S11301C02FEF83EC99E0215080409040E1F700C08C
S11301D00000EBCFA0E0B1E083EB8C93D1961C92AE
S11301E0D19781E0D2968C93D297D3961C92D397D1
S11301F0E0ECF9E0DC96ED93FC93DD979DE6D49674
S11302009C93A0E6B6E050961C92509751968C931E
S1130210519783E053968C9353979BE011969C934C
S1130220A0E8B1E09BE69C9318961C92189799E677
S113023016969C9316971E961C9293E196831782AA
S1130240128292EC9483158298E09383E0E6F4E0C2
S113025091E1948385838EE9868386E186878DE0A8
S1130260848784E5808380E5818380E4828380EAD7
S113027083830895E0E0F1E080AF91AFCB01880F74
S1130280991F680F791F66AB77AB84E880AB08953C
S113029097FB072E16F4009407D077FD09D00E942F
S11302A05C0107FC05D03EF4909581959F4F08951D
S11302B0709561957F4F0895AA1BBB1B51E107C040
S11302C0AA1FBB1FA617B70710F0A61BB70B881FE2
S11302D0991F5A95A9F780959095BC01CD01089571
S10702E0F894FFCFBC
S9030000FC
