S0200000786D656761313665352D6F6C65642D6932632D64656275672E73726563C1
S11300000C94AA000C94C7000C94C7000C94C7006D
S11300100C94C7000C94C7000C94C7000C94C70040
S11300200C94C7000C94C7000C94C7000C941201E4
S11300300C94C7000C94C7000C94C7000C94C70020
S11300400C94C7000C94C7000C94C7000C94C70010
S11300500C94C7000C94C7000C94C7000C94C70000
S11300600C94C7000C94C7000C94C7000C94C700F0
S11300700C94C7000C94C7000C94C7000C94C700E0
S11300800C94C7000C94C7000C94C7000C94C700D0
S11300900C94C7000C94C7000C94C7000C94C700C0
S11300A00C94C7000C94C7000C94C700C104C70487
S11300B0C704C704C704C704C704C704C704C704E4
S11300C0C704C704C704C704C704C704C704C704D4
S11300D0C704C704C704C704C704C704C704C704C4
S11300E0C704C704C704970408042B04C704A9045D
S11300F0C704C704C704C704C704C704C704C704A4
S1130100C704C704C704C704B604C7045804C70413
S1130110C7047604C704C704C704C704C704C704D4
S1130120C704C704C704850408041204C704A90447
S1130130C704C704C704C704C704C704C704C70463
S1130140C704C704C704C704B604C7044904C704E2
S1130150C704670411241FBECFEFCDBFD7E2DEBFB3
S113016012E2A0E0B0E2E6E3FDE002C005900D92E9
S1130170AE30B107D9F722E2AEE0B2E201C01D927F
S1130180AB31B207E1F70E94DA010C9499060C94A2
S1130190000084E98093850410928004E1E8F4E08F
S11301A08081886F80831092820410928304E4E833
S11301B0F4E080818D6C8083089591E09093112206
S11301C020930F22309310221092122210921322A5
S11301D010920E221092142260931822409315223A
S11301E0880F80938604809114228130E1F780E0A7
S11301F008951092112240930F22509310221092CE
S113020012221092132210921422609316227093D9
S11302101722880F80938604809114228130E1F79D
S113022080E008951F920F920FB60F9211242F931E
S11302303F934F935F938F939F93EF93FF9380919B
S1130240840483FF03C083E0809383048091840447
S113025082FD04C08091840484FF06C0E3E8F4E0D6
S113026083E0808381E0808380911422882331F0AD
S1130270E4E8F4E080818064808379C08091840420
S113028086FF47C08091840484FD43C0809111227D
S11302908823C9F080910E22882369F08091152269
S11302A08093870480911222909113220196809367
S11302B0122290931322809118228093870481E064
S11302C080930E2215C0209116223091172280911E
S11302D0122290911322AC014F5F5F4F4093122280
S11302E050931322F901E80FF91F8081809387044A
S11302F0209112223091132280910F22909110228A
S11303002817390731F483E08093830481E08093D4
S1130310142280918404882354F52091162230916C
S113032017228091122290911322AC014F5F5F4FEC
S11303304093122250931322F901E80FF91F2091E0
S113034087042083209112223091132280910F225E
S1130350909110222817390739F487E08093830499
S113036081E08093142203C082E080938304FF9190
S1130370EF919F918F915F914F913F912F910F90AA
S11303800FBE0F901F90189588ED84BF82E0809374
S113039050008091510081FFFCCF88ED84BF91E033
S11303A09093400084BF10924100089587E08093A9
S11303B0A2000895F8940E94C4010E94D6010E94EC
S11303C0C90078940E9414020E94330260E080E025
S11303D00E945A021F9281E08F9382E290E29F93DF
S11303E08F930E94C50388E0809301060F900F90BD
S11303F00F900F90C0E0D0E060E080E00E945A02CD
S11304008E010F5F1F4FDF93CF9382E290E29F93A1
S11304108F930E94C50388E0809307060F900F9086
S11304200F900F90E801E8CFCF93DF93CDB7DEB7FD
S11304306B97CDBFDEBF8BE1E0E0F0E2DE01119609
S113044001900D928A95E1F74BE150E0BE016F5F98
S11304507F4F8CE30E94F90090E06B96CDBFDEBF26
S1130460DF91CF910895CF93DF93CDB7DEB7279770
S1130470CDBFDEBF87E0EBE1F0E2DE011196019033
S11304800D928A95E1F747E050E0BE016F5F7F4F20
S11304908CE30E94F900811107C020E032E040E0C3
S11304A060E48CE30E94DD002796CDBFDEBFDF91C0
S11304B0CF910895CF93DF93CDB7DEB72797CDBF04
S11304C0DEBF8830C8F46623BCF0809319226093A1
S11304D01A22198291E29A836B839FE79C8392E2AA
S11304E09D838E8387E08F8347E050E0BE016F5F7A
S11304F07F4F8CE30E94F9002796CDBFDEBFDF91CA
S1130500CF910895809119228F5F8770809319226B
S113051060E00E945A0208951F93CF93DF93CDB7F2
S1130520DEB72797CDBFDEBF182F80911A2290E047
S113053005968038910514F41A3011F40E94820251
S11305401A30C9F180E4898380EE810F90E0282F6E
S113055030E0492F50E0F901EE0FFF1FEE0FFF1FAF
S1130560E20FF31FED5CFF4DE40FF51F20814F5F99
S11305705F4FE1E0F0E0EC0FFD1FE40FF51F208377
S113058020911A222F5F20931A229F5F9530F9F64B
S1130590E92FF0E0319681E090E08C0F9D1FE80F89
S11305A0F91F10822F5F20931A2247E050E0BC010C
S11305B08CE30E94F9002796CDBFDEBFDF91CF9177
S11305C01F910895CF93DF93EC0103C021960E94FD
S11305D08C0288818111FACFDF91CF9108954F92D7
S11305E05F926F927F92AF92BF92CF92DF92EF921F
S11305F0FF920F931F93CF93DF93CDB7DEB72A9764
S1130600CDBFDEBFA82E6A017B01022F82E0A812B3
S113061020C01CC0802F90E0019741E050E002C050
S1130620440F551F8A95E2F7052E000C660B770BD5
S11306304C215D216E217F2181E0452B462B472BE8
S113064009F480E0805D0E948C0201500111E2CF28
S113065052C0452B462B472B39F010E035C080E3C0
S11306600E948C021F5F01C010E0101708F043C005
S11306701A30A8F340C0C114D104E104F104D1F04C
S1130680BC2C4A2C512C612C712CC701B601A3013E
S113069092010E947106C22ED32EE42EF52EE1E0C3
S11306A0F0E0EC0FFD1FE10FF11DA29EB018112424
S11306B0B08209C00B30E8F4E1E0F0E0EC0FFD1F7C
S11306C0E10FF11D10821F5F1017A8F212C0E12F75
S11306D0F0E0319781E090E08C0F9D1FE80FF91F47
S11306E080818A3010F0895C01C0805D0E948C0298
S11306F011501111ECCF2A96CDBFDEBFDF91CF91FF
S11307001F910F91FF90EF90DF90CF90BF90AF902B
S11307107F906F905F904F9008958F929F92AF92C9
S1130720BF92CF92DF92EF92FF926B017C010E9405
S113073047054B015C012FEFAB01BC018AE00E942D
S1130740EF028EE20E948C02C501B4010E9476057C
S11307509B01AC01C701B6010E94DA0420E034E237
S113076044E759E40E9404060E944705AB01BC011A
S11307702FEF8AE00E94EF02FF90EF90DF90CF907E
S1130780BF90AF909F908F9008954F925F926F9219
S11307907F92AF92BF92EF92FF921F93CF93DF931A
S11307A0CDB7DEB7FE013E96E190F1903F01F2C075
S11307B0853209F0EAC0C7010196D7011196EC9180
S11307C020ED2E0F2A3090F07C011FEF15C0812FF1
S11307D0880F982F990F990F890F8E0F10ED180F0E
S11307E0BFEFEB1AFB0AD701EC9102C07C0110E0C9
S11307F080ED8E0F8A3058F38E2F90E0FC01B59770
S1130800E435F10508F0C3C0EA5AFF4F0C9493068F
S11308105301B2E0AB0EB11CF30180810E948C0243
S11308203501B5C05301F2E0AF0EB11CD3016D9098
S11308307C90772034F47194619471088DE20E9465
S11308408C02A301770C660B770B212F8AE00E94A0
S1130850EF0235019CC05301B4E0AB0EB11CF301AF
S1130860408051806280738077205CF4709460943F
S113087050944094411C511C611C711C8DE20E94D7
S11308808C02212FB301A2018AE00E94EF023501FC
S11308907EC05301F2E0AF0EB11CD3014D915C91C7
S11308A060E070E0212F8AE00E94EF0235016FC002
S11308B05301B4E0AB0EB11CF3014081518162815C
S11308C07381212F8AE00E94EF02350160C0530139
S11308D0F2E0AF0EB11CD3014D915C9160E070E089
S11308E0212F80E10E94EF02350151C05301B4E091
S11308F0AB0EB11CF3014081518162817381212FC0
S113090080E10E94EF02350142C05301F2E0AF0ED4
S1130910B11CD3014D915C911F3F09F410E160E0DB
S113092070E0212F82E00E94EF02350130C05301B4
S1130930B4E0AB0EB11CF30140815181628173813B
S11309401F3F09F410E1212F82E00E94EF023501DC
S11309501EC05301F4E0AF0EB11CD3016D917D9123
S11309608D919C910E948D03350111C05301B2E019
S1130970AB0EB11CF301808191810E94E20235012A
S113098006C085E20E948C0202C00E948C02FFEF26
S1130990EF1AFF0AD7018C9181110ACFDF91CF9111
S11309A01F91FF90EF90BF90AF907F906F905F90FA
S11309B04F9008955058BB27AA270E94F2040C9424
S11309C0CA050E94BC0538F00E94C30520F039F422
S11309D09F3F19F426F40C94B9050EF4E095E7FB57
S11309E00C94B305E92F0E94DB0558F3BA1762078C
S11309F073078407950720F079F4A6F50C94FD0598
S1130A000EF4E0950B2EBA2FA02D0B01B901900125
S1130A100C01CA01A0011124FF27591B99F0593F69
S1130A2050F4503E68F11A16F040A22F232F342FB1
S1130A304427585FF3CF469537952795A795F040FF
S1130A405395C9F77EF41F16BA0B620B730B840B14
S1130A50BAF09150A1F0FF0FBB1F661F771F881FCC
S1130A60C2F70EC0BA0F621F731F841F48F4879524
S1130A7077956795B795F7959E3F08F0B0CF939516
S1130A80880F08F09927EE0F9795879508950E948F
S1130A90E30588F09F5798F0B92F9927B751B0F024
S1130AA0E1F0660F771F881F991F1AF0BA95C9F7EE
S1130AB014C0B13091F00E94FD05B1E008950C948A
S1130AC0FD05672F782F8827B85F39F0B93FCCF33D
S1130AD0869577956795B395D9F73EF4909580956B
S1130AE0709561957F4F8F4F9F4F0895E89409C08B
S1130AF097FB3EF490958095709561957F4F8F4F4D
S1130B009F4F9923A9F0F92F96E9BB279395F69562
S1130B10879577956795B795F111F8CFFAF4BB0FE0
S1130B2011F460FF1BC06F5F7F4F8F4F9F4F16C044
S1130B30882311F096E911C0772321F09EE8872FCE
S1130B40762F05C0662371F096E8862F70E060E08A
S1130B502AF09A95660F771F881FDAF7880F969503
S1130B60879597F9089597F99F6780E870E060E0AA
S1130B7008959FEF80EC089500240A941616170632
S1130B8018060906089500240A941216130614067A
S1130B9005060895092E0394000C11F4882352F0DD
S1130BA0BB0F40F4BF2B11F460FF04C06F5F7F4F95
S1130BB08F4F9F4F089557FD9058440F551F59F07C
S1130BC05F3F71F04795880F97FB991F61F09F3F36
S1130BD079F087950895121613061406551FF2CF5F
S1130BE04695F1DF08C0161617061806991FF1CFAF
S1130BF086957105610508940895E894BB276627D6
S1130C007727CB0197F908950E9417060C94CA051B
S1130C100E94BC0538F00E94C30520F0952311F012
S1130C200C94B3050C94B90511240C94FE050E9490
S1130C30DB0570F3959FC1F3950F50E0551F629F3C
S1130C40F001729FBB27F00DB11D639FAA27F00D21
S1130C50B11DAA1F649F6627B00DA11D661F829F48
S1130C602227B00DA11D621F739FB00DA11D621F2D
S1130C70839FA00D611D221F749F3327A00D611D4A
S1130C80231F849F600D211D822F762F6A2F11242C
S1130C909F5750409AF0F1F088234AF0EE0FFF1F5F
S1130CA0BB1F661F771F881F91505040A9F79E3FB6
S1130CB0510580F00C94B3050C94FE055F3FE4F3FA
S1130CC0983ED4F3869577956795B795F795E7950C
S1130CD09F5FC1F7FE2B880F911D9695879597F915
S1130CE00895A1E21A2EAA1BBB1BFD010DC0AA1F69
S1130CF0BB1FEE1FFF1FA217B307E407F50720F081
S1130D00A21BB30BE40BF50B661F771F881F991FFB
S1130D101A9469F760957095809590959B01AC0144
S1130D20BD01CF010895EE0FFF1F0590F491E02D52
S1090D300994F894FFCFC2
S1130D3600AED580A81FD300408D142000A0C0DAD1
S1130D46028100D9F1DB40A4A62EAF0022000321C4
S1130D56007F48656C6C6F206E756D626572202528
S1130D66642E00000000000000002F0000000700B1
S1130D760700147F147F14242A7F2A12231308647D
S1130D866236495522500005030000001C2241002A
S1130D960041221C0014083E081408083E080800F6
S1130DA600A0600008080808080060600000201021
S1130DB60804023E5149453E00427F4000426151CB
S1130DC649462141454B311814127F1027454545A4
S1130DD6393C4A49493001710905033649494936BE
S1130DE6064949291E00363600000056360000081A
S1130DF6142241001414141414004122140802018C
S1130E06510906324959513E7C1211127C7F4949D7
S1130E1649363E414141227F4141221C7F4949498D
S1130E26417F090909013E4149497A7F0808087F3B
S1130E3600417F41002040413F017F081422417F49
S1130E46404040407F020C027F7F0408107F3E41F1
S1130E5641413E7F090909063E4151215E7F091938
S1130E662946464949493101017F01013F40404035
S1130E763F1F2040201F3F4038403F63140814633F
S1130E8607087008076151494543007F41410055F1
S1130E96AA55AA550041417F0004020102044040BC
S1130EA6404040000305000020545454787F4844D1
S1130EB644383844444420384444487F38545454CD
S1130EC618087E09010218A4A4A47C7F08040478E7
S1130ED600447D40004080847D007F10284400004B
S1130EE6417F40007C041804787C08040478384464
S1130EF6444438FC2424241818242418FC7C0804AC
S1130F0604084854545420043F4440203C404020A4
S1130F167C1C2040201C3C4030403C442810284483
S1130F261CA0A0A07C4464544C4400107C820000A5
S1110F3600FF000000827C100000060909067E
S9030000FC
