S01F0000786D6567612D6361702D746F7563682D69632D746573742E737265635C
S11300000C9456000C9473000C9473000C94BC0173
S11300100C9473000C9473000C9473000C94730090
S11300200C9473000C9473000C9473000C94E00112
S11300300C9473000C9473000C9473000C94730070
S11300400C9473000C9473000C9473000C94730060
S11300500C9473000C9473000C9473000C94730050
S11300600C9473000C9473000C9473000C94730040
S11300700C9473000C9473000C9473000C94730030
S11300800C9473000C9473000C9473000C94730020
S11300900C9473000C9473000C9473000C94730010
S11300A00C9473000C9473000C94730011241FBE01
S11300B0CFEFCDBFD7E2DEBF10E2A0E0B0E2ECECC0
S11300C0F4E002C005900D92AA33B107D9F720E2FB
S11300D0AAE3B0E201C01D92A936B207E1F70E947B
S11300E07C010C9464020C94000088ED84BF82E0CF
S11300F0809350008091510081FFFCCF88ED84BF34
S113010081E080934000089540E013C0242F30E044
S1130110220F331FF901E050F04E6081718189E0B4
S11301209DE30E945002F901E35CFF4D60837183FB
S11301304F5F403158F3089587E08093A2000895FB
S113014084E98093850410928004E1E8F4E08081DE
S1130150886F80831092820410928304E4E8F4E0B0
S113016080818D6C8083089510923A2010923B20F8
S113017010923C2080935E2080E5809386048091D9
S11301803C208130E1F760933A2010923B2010929A
S11301903C2081E58093860480913C208130E1F706
S11301A0089591E090933A2010923B2010923C20C5
S11301B0EEE5F0E28083618380E58093860480919C
S11301C03C208130E1F7089580E180934106E0E42A
S11301D0F8E081E08183848308956CE88AE20E94D8
S11301E0D10060E08BE20E94D1006FE38FE10E94B6
S11301F0D10060EA80E20E94D100089563E080E0CB
S11302000E94B400EEE5F0E282818093682083814D
S113021080935D208FE79EE30197F1F700C0000013
S113022060E080E00E94D1000895AC0194E09093D6
S1130230010680EC80938101E0E0F8E020EB34E0FB
S113024026A337A387E08083A0E0B3E021E01196E2
S11302502C93119788E012968C93129713962C93F3
S1130260139785E08C93E0E0F1E020E42083208B79
S113027081E3828B85E1848B70E0660F771F668B48
S1130280778B408F518F85E8808B83E1818B80E869
S113029080839093A2008FEF9FE058968D939C9358
S11302A059970895CF93DF9388E080930506E091F2
S11302B05D20F0E0EE0FFF1FE35CFF4D8081918134
S11302C0C0E4D8E088A799A76DE080E290E20E949C
S11302D0150187E08883DF91CF91089588E08093AA
S11302E00606E0E0F1E081898061818BE0E4F8E0DA
S11302F010A211A210820895F8940E9484000E9412
S113030075000E949C000E94A0000E94E400789462
S1130310E0E6F6E08FE0818386832FEF83EC99E0BB
S1130320215080409040E1F700C000000E94ED00A1
S1130330E0E0F6E080E1828388E0818388E1848BD9
S1130340C0E001C0C0E00E94FE0080915D208F707B
S1130350809364068091080684FD09C0C11107C01A
S113036080915D20882319F00E945201C1E08091A0
S1130370080684FDE7CFE7CF1F920F920FB60F92C6
S113038011242F933F934F935F936F937F938F9396
S11303909F93AF93BF93EF93FF930E946E01FF91DE
S11303A0EF91BF91AF919F918F917F916F915F91E9
S11303B04F913F912F910F900FBE0F901F90189562
S11303C01F920F920FB60F9211248F93EF93FF9306
S11303D08091840483FF03C083E08093830480912D
S11303E0840482FD04C08091840484FF06C0E3E891
S11303F0F4E083E0808381E0808380913C2081115C
S113040047C08091840486FF20C08091840484FDC9
S11304101CC0E0913B2081E08E0F80933B20F0E0F4
S1130420E25AFF4D80818093870480913A2088238B
S113043031F080913A20815080933A2006C083E0C5
S11304408093830481E080933C20809184048823FA
S1130450FCF4E0913B2081E08E0F80933B20F0E0A0
S113046080918704E25AFF4D808380913A20811164
S113047007C087E08093830481E080933C2008C018
S113048080913A20815080933A2082E080938304C3
S1130490FF91EF918F910F900FBE0F901F901895C1
S11304A0AA1BBB1B51E107C0AA1FBB1FA617B70796
S11304B010F0A61BB70B881F991F5A95A9F78095B2
S10F04C09095BC01CD010895F894FFCF85
S11304CCE900F70006011501260137014A015D0117
S11304DC720188019F01B801D201EE010B022A02BC
S11304ECFF0F0008000400020001800040002000FF
S10D04FC10000800040002000000D4
S9030000FC
