S0250000786D656761313665352D6E79616E2D616E642D6E6F7465732D746573742E7372656366
S11300000C94AA000C94C7000C94C7000C946404CC
S11300100C94C7000C94C7000C94C7000C94C70040
S11300200C94C7000C94C7000C94C7000C942C01CA
S11300300C9488040C94C7000C94C7000C94C7005B
S11300400C94C7000C94C7000C94C7000C94C70010
S11300500C94C7000C94C7000C94C7000C94C70000
S11300600C94C7000C94C7000C94C7000C94C700F0
S11300700C94C7000C94C7000C94C7000C94C700E0
S11300800C94C7000C94C7000C94C7000C94C700D0
S11300900C94C7000C94C7000C94C7000C94C700C0
S11300A00C94C7000C94C7000C94C700E707ED0735
S11300B0ED07ED07ED07ED07ED07ED07ED07ED079C
S11300C0ED07ED07ED07ED07ED07ED07ED07ED078C
S11300D0ED07ED07ED07ED07ED07ED07ED07ED077C
S11300E0ED07ED07ED07BD072E075107ED07CF0715
S11300F0ED07ED07ED07ED07ED07ED07ED07ED075C
S1130100ED07ED07ED07ED07DC07ED077E07ED07CB
S1130110ED079C07ED07ED07ED07ED07ED07ED078C
S1130120ED07ED07ED07AB072E073807ED07CF07FF
S1130130ED07ED07ED07ED07ED07ED07ED07ED071B
S1130140ED07ED07ED07ED07DC07ED076F07ED079A
S1130150ED078D0711241FBECFEFCDBFD7E2DEBF61
S113016013E2A0E0B0E2E2E8F3E102C005900D92F0
S1130170AC3CB107D9F724E2ACECB3E201C01D9268
S1130180AA30B207E1F70E94F0030C94BF090C9463
S1130190000084E98093850410928004E1E8F4E08F
S11301A08081886F80831092820410928304E4E833
S11301B0F4E080818D6C808308954093FE235093F6
S11301C0FF231092012410920224109203246093BE
S11301D005247093062490E0880F991F8160809312
S11301E08604809103248130E1F780E0089591E052
S11301F0909300242093FE233093FF231092012434
S1130200109202241092FD23109203246093072479
S113021040930424880F80938604809103248130C2
S1130220E1F780E00895109200244093FE23509358
S1130230FF2310920124109202241092032460934D
S1130240052470930624880F8093860480910324E8
S11302508130E1F780E008951F920F920FB60F925C
S113026011242F933F934F935F938F939F93EF9317
S1130270FF938091840483FF03C083E0809383040D
S11302808091840482FD04C08091840484FF08C0AA
S1130290E3E8F4E083E0808381E0808380930324B7
S11302A080910324882331F0E4E8F4E080818064C1
S11302B0808379C08091840486FF47C08091840440
S11302C084FD43C0809100248823C9F08091FD23DC
S11302D0882369F080910424809387048091012409
S11302E0909102240196809301249093022480919A
S11302F007248093870481E08093FD2315C0209117
S11303000524309106248091012490910224AC01AB
S11303104F5F5F4F4093012450930224F901E80F8B
S1130320F91F808180938704209101243091022455
S11303308091FE239091FF232817390731F483E03D
S11303408093830481E08093032480918404882330
S113035054F5209105243091062480910124909134
S11303600224AC014F5F5F4F409301245093022459
S1130370F901E80FF91F20918704208320910124BB
S1130380309102248091FE239091FF23281739078E
S113039039F487E08093830481E08093032403C0CD
S11303A082E080938304FF91EF919F918F915F91FD
S11303B04F913F912F910F900FBE0F901F90189562
S11303C088ED84BF82E0809350008091510081FFCA
S11303D0FCCF88ED84BF91E09093400084BF1092DD
S11303E04100089587E08093A2000895E0E0F8E0DA
S11303F01182148283E0868310828BED95E386A3B9
S113040097A3089580E180934106E0E4F8E081E059
S1130410818385E0848384E08083089580E18093F0
S11304206106E0E4F9E081E0818385E0848384E08F
S113043080830895CF92DF92EF92FF920F931F93E0
S1130440CF93DF936C01E901D70181E0F60180834A
S113045088819981680F791FFB019081892F82958A
S113046086958695837061E070E002C0660F771F01
S11304708A95E2F76150F80120813181420F531FC0
S1130480FA01208130E00C9002C0359527950A943A
S1130490E2F720FD6FE0F60160839F73892F90E0FF
S11304A0009751F0880F991FFC01ED5EFE4D4081CD
S11304B051815695479502C040E050E0288139812A
S11304C02F5F3F4F288339839C919F5F9C93983083
S11304D039F41C92F8018081918101968083918383
S11304E0CA01DF91CF911F910F91FF90EF90DF90A0
S11304F0CF900895EF92FF920F931F9340911A208B
S113050050911B2060911C2070911D200F2EF9ED3D
S1130510EF2EF3E2FF2EF02D0AED13E22CED33E281
S113052088ED93E20E941A02809368089093690808
S11305301F910F91FF90EF900895EF92FF920F9308
S11305401F934091022050910320609104207091E8
S113055005200F2EFEECEF2EF3E2FF2EF02D0FEC14
S113056013E221ED33E28DEC93E20E941A028093B0
S11305706809909369091F910F91FF90EF90089576
S11305800E943A050E94590560E080E00E948005BF
S11305908FEC91E29F938F930E94EB060F900F9044
S11305A00895CF93DF9300D01F92CDB7DEB786E0D6
S11305B089838FEF8A838B8343E050E0BE016F5FB2
S11305C07F4F80E20E9413012396CDBFDEBFDF91EF
S11305D0CF910895CF93DF9300D0CDB7DEB78A8350
S11305E041E050E0BE016E5F7F4F80E20E94130144
S11305F041E050E0BE016F5F7F4F80E20E94DD006A
S113060089810F900F90DF91CF910895CF9380E06F
S11306100E94EA02C82F81E00E94EA0290E0982F2B
S113062088278C0F911DCF910895AC0190E014C0E0
S1130630FB01E90FF11D20E3208320E030E8092EBF
S113064002C0369527950A94E2F724233523232BF9
S113065011F081E380839F5F903150F3089584EF1C
S113066090E280931C2090931D2089EF93E2809365
S11306701A2090931B201092D8231092DC231092FE
S1130680DD231092DA231092DB231092D92386ED16
S113069093E2809304209093052089E190E2809373
S11306A00220909303201092CD231092D123109214
S11306B0D2231092CF231092D0231092CE230E94E3
S11306C07A020E949D0208959C0180EC809381012E
S11306D0E0E0F8E080EB94E086A397A387E08083D2
S11306E0A0E0B3E091E011969C93119788E01296F4
S11306F08C93129713969C93139785E08C93E0E068
S1130700F1E090E49083908B81E3828B85E1848B8C
S113071070E0660F771F668B778B208F318F85E8AB
S1130720808B83E1818B80E8808384E08093A200C6
S11307308FEF9FE058968D939C9359970895CF938C
S1130740DF9388E080930506E091CC23F0E03796B0
S1130750EE0FFF1FED5EFE4D80819181C0E4D8E075
S113076088A799A76DE083E991E20E94640384E07D
S11307708883DF91CF91089588E080930606E0E0B6
S1130780F1E081898061818BE0E4F8E010A211A29C
S113079010820895E0E0F6E098E0918394E091837C
S11307A0882319F0813069F008950E940202E0E67E
S11307B0F6E08FE0828388E1808B818B828B838B50
S11307C008950E94F6010E9402020E940E020E94F5
S11307D02F0384E08093050686E080930008089543
S11307E0CF93DF93CDB7DEB76197CDBFDEBFF8946B
S11307F00E94E0010E94F2010E94C90078940E94C4
S1130800C0020E94D10280E00E94CA0360E081E03D
S11308100E94800587ED91E29F938F930E94EB06DF
S113082088E080930506FE01319681E1DF011D9287
S11308308A95E9F780E389830F900F90E12CF12CDE
S1130840D12C0E9406038C018091680680958F70DC
S11308508093CC2360E081E00E9480058091CC23CA
S11308601F928F9385EE91E29F938F930E94EB06E4
S11308708091CC230F900F900F900F90882349F014
S1130880E016F10631F0D11004C00E949F03DD246C
S1130890D394E016F10609F4D12C0F3FBFEF1B07E8
S11308A039F0BE016F5F7F4FC8010E9415037801C4
S11308B060E082E00E948005CE0101960E94080655
S11308C088E080930706BDCF1F920F920FB60F9258
S11308D011242F933F934F935F936F937F938F9341
S11308E09F93AF93BF93EF93FF930E94BC03FF9139
S11308F0EF91BF91AF919F918F917F916F915F9194
S11309004F913F912F910F900FBE0F901F9018950C
S11309101F920F920FB60F9211242F933F934F9370
S11309205F936F937F938F939F93AF93BF93EF9353
S1130930FF9388E08093070681E080930C08809100
S1130940D823811137C0E0E4F8E0108210A611A684
S11309502091DC233091DD2380911E2090911F2073
S11309602817390720F1809101208823A1F01092E3
S1130970012084ED90E080931E2090931F2080E25C
S113098090E280931C2090931D208EED93E280933F
S11309901A2090931B201092D8231092DC231092DB
S11309A0DD231092DA231092DB231092D9230E94C4
S11309B07A0203C081508093D8238091CD23811182
S11309C037C0E0E4F9E0108210A611A62091D123EB
S11309D03091D2238091062090910720281739075F
S11309E020F1809100208823A1F01092002081E161
S11309F090E0809306209093072088E090E2809313
S1130A0004209093052083ED93E280930220909339
S1130A1003201092CD231092D1231092D22310924E
S1130A20CF231092D0231092CE230E949D0203C0A4
S1130A3081508093CD232FEF83EF91E021508040AC
S1130A409040E1F700C0000084E080934008809368
S1130A504009FF91EF91BF91AF919F918F917F9149
S1130A606F915F914F913F912F910F900FBE0F9017
S1130A701F901895CF93DF93CDB7DEB76B97CDBF9B
S1130A80DEBF8BE1EDEAF1E2DE01119601900D92F9
S1130A908A95E1F74BE150E0BE016F5F7F4F8CE335
S1130AA00E94130190E06B96CDBFDEBFDF91CF9122
S1130AB00895CF93DF93CDB7DEB72797CDBFDEBFC1
S1130AC087E0E8ECF1E2DE01119601900D928A953F
S1130AD0E1F747E050E0BE016F5F7F4F8CE30E9477
S1130AE01301811107C020E032E040E060E48CE3B0
S1130AF00E94F7002796CDBFDEBFDF91CF91089506
S1130B00CF93DF93CDB7DEB72797CDBFDEBF883055
S1130B10C8F46623BCF080930824609309241982E6
S1130B2091E29A836B839FE79C8392E29D838E83F9
S1130B3087E08F8347E050E0BE016F5F7F4F8CE317
S1130B400E9413012796CDBFDEBFDF91CF91089598
S1130B50809108248F5F87708093082460E00E944E
S1130B60800508951F93CF93DF93CDB7DEB7279702
S1130B70CDBFDEBF182F8091092490E00596803800
S1130B80910514F41A3011F40E94A8051A30C9F121
S1130B9080E4898380EE810F90E0282F30E0492F94
S1130BA050E0F901EE0FFF1FEE0FFF1FE20FF31FDE
S1130BB0EF50FE4DE40FF51F20814F5F5F4FE1E0E2
S1130BC0F0E0EC0FFD1FE40FF51F208320910924B2
S1130BD02F5F209309249F5F9530F9F6E92FF0E009
S1130BE0319681E090E08C0F9D1FE80FF91F108271
S1130BF02F5F2093092447E050E0BC018CE30E945E
S1130C0013012796CDBFDEBFDF91CF911F910895C9
S1130C10CF93DF93EC0103C021960E94B205888133
S1130C208111FACFDF91CF9108954F925F926F9225
S1130C307F92AF92BF92CF92DF92EF92FF920F9387
S1130C401F93CF93DF93CDB7DEB72A97CDBFDEBF17
S1130C50A82E6A017B01022F82E0A81220C01CC0CA
S1130C60802F90E0019741E050E002C0440F551FEF
S1130C708A95E2F7052E000C660B770B4C215D215B
S1130C806E217F2181E0452B462B472B09F480E020
S1130C90805D0E94B20501500111E2CF52C0452B84
S1130CA0462B472B39F010E035C080E30E94B20593
S1130CB01F5F01C010E0101708F043C01A30A8F3FA
S1130CC040C0C114D104E104F104D1F0BC2C4A2C7D
S1130CD0512C612C712CC701B601A30192010E9411
S1130CE09709C22ED32EE42EF52EE1E0F0E0EC0FAE
S1130CF0FD1FE10FF11DA29EB0181124B08209C09E
S1130D000B30E8F4E1E0F0E0EC0FFD1FE10FF11D22
S1130D1010821F5F1017A8F212C0E12FF0E0319784
S1130D2081E090E08C0F9D1FE80FF91F80818A30CD
S1130D3010F0895C01C0805D0E94B2051150111150
S1130D40ECCF2A96CDBFDEBFDF91CF911F910F91DB
S1130D50FF90EF90DF90CF90BF90AF907F906F9017
S1130D605F904F9008958F929F92AF92BF92CF92CF
S1130D70DF92EF92FF926B017C010E946D084B01A0
S1130D805C012FEFAB01BC018AE00E9415068EE2E4
S1130D900E94B205C501B4010E949C089B01AC01EC
S1130DA0C701B6010E94000820E034E244E759E498
S1130DB00E942A090E946D08AB01BC012FEF8AE052
S1130DC00E941506FF90EF90DF90CF90BF90AF90F8
S1130DD09F908F9008954F925F926F927F92AF92FF
S1130DE0BF92EF92FF921F93CF93DF93CDB7DEB7FD
S1130DF0FE013E96E190F1903F01F2C0853209F088
S1130E00EAC0C7010196D7011196EC9120ED2E0F8F
S1130E102A3090F07C011FEF15C0812F880F982F86
S1130E20990F990F890F8E0F10ED180FBFEFEB1A62
S1130E30FB0AD701EC9102C07C0110E080ED8E0F1B
S1130E408A3058F38E2F90E0FC01B597E435F10514
S1130E5008F0C3C0EA5AFF4F0C94B9095301B2E039
S1130E60AB0EB11CF30180810E94B2053501B5C0FF
S1130E705301F2E0AF0EB11CD3016D907C9077204A
S1130E8034F47194619471088DE20E94B205A30157
S1130E90770C660B770B212F8AE00E94150635012B
S1130EA09CC05301B4E0AB0EB11CF30140805180EF
S1130EB06280738077205CF47094609450944094C2
S1130EC0411C511C611C711C8DE20E94B205212F32
S1130ED0B301A2018AE00E94150635017EC05301C8
S1130EE0F2E0AF0EB11CD3014D915C9160E070E073
S1130EF0212F8AE00E94150635016FC05301B4E02A
S1130F00AB0EB11CF3014081518162817381212FA9
S1130F108AE00E941506350160C05301F2E0AF0E6D
S1130F20B11CD3014D915C9160E070E0212F80E110
S1130F300E941506350151C05301B4E0AB0EB11C3B
S1130F40F3014081518162817381212F80E10E94EC
S1130F501506350142C05301F2E0AF0EB11CD301B6
S1130F604D915C911F3F09F410E160E070E0212F86
S1130F7082E00E941506350130C05301B4E0AB0E87
S1130F80B11CF30140815181628173811F3F09F4D7
S1130F9010E1212F82E00E94150635011EC0530185
S1130FA0F4E0AF0EB11CD3016D917D918D919C91B4
S1130FB00E94B306350111C05301B2E0AB0EB11C5F
S1130FC0F301808191810E940806350106C085E203
S1130FD00E94B20502C00E94B205FFEFEF1AFF0A99
S1130FE0D7018C9181110ACFDF91CF911F91FF908E
S1130FF0EF90BF90AF907F906F905F904F90089567
S11310005058BB27AA270E9418080C94F0080E9485
S1131010E20838F00E94E90820F039F49F3F19F4FF
S113102026F40C94DF080EF4E095E7FB0C94D90841
S1131030E92F0E94010958F3BA176207730784075E
S1131040950720F079F4A6F50C9423090EF4E095A5
S11310500B2EBA2FA02D0B01B90190010C01CA016E
S1131060A0011124FF27591B99F0593F50F4503E19
S113107068F11A16F040A22F232F342F4427585F0B
S1131080F3CF469537952795A795F0405395C9F723
S11310907EF41F16BA0B620B730B840BBAF09150DB
S11310A0A1F0FF0FBB1F661F771F881FC2F70EC07A
S11310B0BA0F621F731F841F48F48795779567954D
S11310C0B795F7959E3F08F0B0CF9395880F08F039
S11310D09927EE0F9795879508950E94090988F03E
S11310E09F5798F0B92F9927B751B0F0E1F0660FE8
S11310F0771F881F991F1AF0BA95C9F714C0B13029
S113110091F00E942309B1E008950C942309672FFC
S1131110782F8827B85F39F0B93FCCF38695779557
S11311206795B395D9F73EF4909580957095619540
S11311307F4F8F4F9F4F0895E89409C097FB3EF46B
S113114090958095709561957F4F8F4F9F4F992310
S1131150A9F0F92F96E9BB279395F695879577958E
S11311606795B795F111F8CFFAF4BB0F11F460FF4E
S11311701BC06F5F7F4F8F4F9F4F16C0882311F0A6
S113118096E911C0772321F09EE8872F762F05C0BA
S1131190662371F096E8862F70E060E02AF09A9555
S11311A0660F771F881FDAF7880F9695879597F94A
S11311B0089597F99F6780E870E060E008959FEFD5
S11311C080EC089500240A941616170618060906DA
S11311D0089500240A9412161306140605060895A9
S11311E0092E0394000C11F4882352F0BB0F40F431
S11311F0BF2B11F460FF04C06F5F7F4F8F4F9F4F71
S1131200089557FD9058440F551F59F05F3F71F0F2
S11312104795880F97FB991F61F09F3F79F0879559
S11312200895121613061406551FF2CF4695F1DFE2
S113123008C0161617061806991FF1CF8695710572
S1131240610508940895E894BB2766277727CB01A6
S113125097F908950E943D090C94F0080E94E20851
S113126038F00E94E90820F0952311F00C94D90875
S11312700C94DF0811240C9424090E94010970F3D2
S1131280959FC1F3950F50E0551F629FF001729F27
S1131290BB27F00DB11D639FAA27F00DB11DAA1F36
S11312A0649F6627B00DA11D661F829F2227B00D83
S11312B0A11D621F739FB00DA11D621F839FA00D0E
S11312C0611D221F749F3327A00D611D231F849F5E
S11312D0600D211D822F762F6A2F11249F575040B5
S11312E09AF0F1F088234AF0EE0FFF1FBB1F661F30
S11312F0771F881F91505040A9F79E3F510580F0F9
S11313000C94D9080C9424095F3FE4F3983ED4F379
S1131310869577956795B795F795E7959F5FC1F79C
S1131320FE2B880F911D9695879597F90895A1E254
S11313301A2EAA1BBB1BFD010DC0AA1FBB1FEE1F4B
S1131340FF1FA217B307E407F50720F0A21BB30B96
S1131350E40BF50B661F771F881F991F1A9469F712
S113136060957095809590959B01AC01BD01CF016E
S11313700895EE0FFF1F0590F491E02D0994F89461
S1051380FFCF99
S113138201011920D623020075697367766A7165B3
S1131392786C73673A2E7A787603F923F4201F0067
S11313A24F4D155214131456565453131416141243
S11313B20F0D120F1412161416524F0D120F14128F
S11313C216151213141614531614120F141314169A
S11313D25456544F4D155214131456565453131451
S11313E21614120F0D120F1412161416524F0D1258
S11313F20F141216151213141614531614120F1472
S1131402131416545656561B19561B191614121633
S11314121112110F56561B19161B111214161D1EEA
S11314221D1B561B19561B1916161412161B191BB3
S1131432561617161B19161112110F5657561B1949
S1131442561B19161412161112110F56561B191681
S11314521B111214161D1E1D1B561B19561B191681
S1131462161412161B191B561617161B19161112CF
S1131472110F565412110F000A1112110F0A060508
S1131482060B0A000F0012110F004A080B0A080586
S1131492060508B404FC0448059805EC054806A8AA
S11314A2060C077807E8076008E0086809F809905D
S11314B20A300BD80B900C4C0D180EF00ED00FC442
S11314C210C011D012F0131C156016B4171C199C0D
S11314D21A301CDC1DA41F84218423A025DC273C94
S11314E22AC02C682F383234356038B83B483F085C
S11314F2430447404BB84F74547C59CC5E706468C3
S11315026ABC707077887E14860C8E8096709FEC0D
S1131512A8FCB2FF0FA00FD80EAC0D1C0C280AD0E9
S1131522071405F40190012C01C800640000AED533
S113153280A81FD300408D142000A0C0DA028100CD
S1131542D9F1DB40A4A62EAF0022000321007F5371
S113155274617274656400657870616E646572208A
S11315627265616400627574746F6E733A202564E7
S113157200000000000000002F0000000700070028
S1131582147F147F14242A7F2A12231308646236D8
S1131592495522500005030000001C22410000416D
S11315A2221C0014083E081408083E08080000A083
S11315B260000808080808006060000020100804A1
S11315C2023E5149453E00427F4000426151494634
S11315D22141454B311814127F1027454545393CAA
S11315E24A494930017109050336494949360649D0
S11315F249291E003636000000563600000814221F
S11316024100141414141400412214080201510953
S113161206324959513E7C1211127C7F494949369E
S11316223E414141227F4141221C7F494949417F38
S1131632090909013E4149497A7F0808087F0041A6
S11316427F41002040413F017F081422417F4040F6
S113165240407F020C027F7F0408107F3E414141DB
S11316623E7F090909063E4151215E7F0919294637
S1131672464949493101017F01013F4040403F1F32
S11316822040201F3F4038403F631408146307087A
S11316927008076151494543007F41410055AA55ED
S11316A2AA550041417F0004020102044040404027
S11316B240000305000020545454787F48444438C1
S11316C23844444420384444487F38545454180815
S11316D27E09010218A4A4A47C7F080404780044AF
S11316E27D40004080847D007F1028440000417FBB
S11316F240007C041804787C080404783844444488
S113170238FC2424241818242418FC7C0804040813
S11317124854545420043F4440203C4040207C1C04
S11317222040201C3C4030403C44281028441CA04B
S1131732A0A07C4464544C4400107C82000000FF4E
S10F1742000000827C100000060909066B
S9030000FC
